:020000040800F2
:10000000A807002065010008451800082509000818
:1000100000000000000000000000000000000000E0
:10002000000000000000000000000000B31C0008F9
:100030000000000000000000B11C0008B51C000812
:100040007701000800000000770100087701000830
:1000500077010008770100087701000877010008A0
:10006000000000005505000877010008770100082E
:100070007701000877010008770100080000000000
:10008000770100080000000000000000671D000864
:1000900000000000651E00086D1E000877010008C2
:1000A0007701000877010008770100087701000850
:1000B00077010008000000000000000000000000C0
:1000C00000F002F800F03EF80CA030C80838241800
:1000D0002D18A246671EAB4654465D46AC4201D180
:1000E00000F030F87E460F3E0FCCB6460126334274
:1000F00000D0FB1AA246AB463343184778240000D1
:1001000098240000103A02D378C878C1FAD8520770
:1001100001D330C830C101D504680C6070470000BD
:100120000023002400250026103A01D378C1FBD813
:10013000520700D330C100D50B6070471FB51FBDFB
:1001400010B510BD00F041F91146FFF7F7FF02F0BE
:10015000A7F800F059F903B4FFF7F2FF03BC00F071
:100160005FF900000748804707480047FEE7FEE7C1
:10017000FEE7FEE7FEE7FEE704480549054A064BB1
:1001800070470000651D0008C1000008A80100209C
:10019000A8070020A8030020A803002001E004C055
:1001A000091F0429FBD28B0701D50280801CC907D7
:1001B00000D00270704700290BD0C30702D0027034
:1001C000401C491E022904D3830702D50280801CEB
:1001D000891EE3E70022EEE70022DFE700220309A1
:1001E0008B422CD3030A8B4211D300239C464EE052
:1001F00003460B433CD4002243088B4231D303090E
:100200008B421CD3030A8B4201D394463FE0C309BF
:100210008B4201D3CB01C01A524183098B4201D3D7
:100220008B01C01A524143098B4201D34B01C01AC2
:10023000524103098B4201D30B01C01A5241C3083A
:100240008B4201D3CB00C01A524183088B4201D3A9
:100250008B00C01A524143088B4201D34B00C01A95
:100260005241411A00D201465241104670475DE0AA
:10027000CA0F00D04942031000D34042534000222D
:100280009C4603098B422DD3030A8B4212D3FC22D6
:10029000890112BA030A8B420CD3890192118B4255
:1002A00008D3890192118B4204D389013AD092116B
:1002B00000E08909C3098B4201D3CB01C01A524126
:1002C00083098B4201D38B01C01A524143098B42EF
:1002D00001D34B01C01A524103098B4201D30B01D8
:1002E000C01A5241C3088B4201D3CB00C01A5241FD
:1002F00083088B4201D38B00C01A5241D9D24308E4
:100300008B4201D34B00C01A5241411A00D2014620
:10031000634652415B10104601D34042002B00D58A
:100320004942704763465B1000D3404201B500204C
:10033000C046C04602BD7047704770470102C215F3
:1003400004D00123DB071943002A0ADB9E239A1AF3
:1003500002D40846D0407047FF2241001206914265
:1003600001D900207047C017C04370471F22030CFB
:1003700002D10F2200041CD0030E01D10002083A62
:10038000030F01D10001121F830F01D18000921EC3
:10039000002801DB4000521ED205511802125118EC
:1003A0001922904004D3491C002801D14908490072
:1003B00008467047C10FC90700D04042012292078A
:1003C0001143D3E701218907D0E7754600F024F8EF
:1003D000AE46050069465346C008C000854618B0C1
:1003E00020B5FFF7C9FE60BC00274908B6460026C5
:1003F000C0C5C0C5C0C5C0C5C0C5C0C5C0C5C0C5D5
:10040000403D49008D46704710B50446C046C04681
:100410002046FFF7A0FE10BD0048704748010020AD
:1004200001491820ABBEFEE726000200704700001D
:10043000F0B594082B4B3CD065420446008800B2CE
:10044000002801DD064605E05E1C87B2B7421E4665
:1004500000D046420E800220205E002801DD0646C4
:1004600005E05E1C87B2B7421E4600D046424E8071
:100470000420205E002801DD064605E05E1C87B2F0
:10048000B7421E4600D046428E800620205E0028DD
:1004900001DD064605E05E1C87B2B7421E4600D06D
:1004A0004642CE800831204608306D1CC5D1083444
:1004B00000E0044603200240002A12D05042228865
:1004C00015B2002D01DD2A4605E05A1CAEB2964257
:1004D0001A4600D06A42A41C0A80401C891C0028CD
:1004E000EDD1F0BDFF7F0000F0B581B015468A0860
:1004F0001DD0009503250B46AB435542002206460E
:10050000378874882404E4192714BA1824B21219FD
:10051000B488F7883F043C192714D21924B2121961
:1005200008366D1CECD15B00C018009D00E0002275
:1005300003230B40002B07D05B42048824B212191E
:100540005B1C801C002BF8D11046FFF751FE288061
:1005500001B0F0BD704772B6FEE70000F0B50023B1
:1005600003249AE02A4601259D402A407ED00E7938
:10057000B607B60F012E01D0022E16D18668274687
:10058000B4465E00B646B7406646BE43B446CF6842
:100590007646B7406646374387604668AE430D7976
:1005A000ED06ED0F9D40354345600D79ED43AD07F8
:1005B00008D0C5685F002646BE40B5438E68BE4081
:1005C0002E43C6600D79AD07AD0F022D0ED1DD08AB
:1005D000AD002D18AC462D6A5E07F60E0F27B7400A
:1005E000BD430F69B7402F4365462F6205685F0022
:1005F0002646BE40B5430E79B607B60FBE402E4321
:1006000006604D68AD03AD0F46D09E08264DB6007E
:100610007519AC462D6E9E07F60E0F27B740BD43E9
:1006200005273F07B84201D100270FE01F4FB8420E
:1006300001D101270AE01E4FB84201D1022705E08F
:100640001C4FB84201D1032700E00527B7402F43D4
:10065000154D664637662D684E689543F60200D5FF
:100660001543114F3D607D68954300E014E04E68EE
:10067000B60200D515437D600B4D80356E684F681E
:100680009643BF0300D516436E602E684F689643AD
:10069000FF0300D516432E605B1C0A681546DA403E
:1006A00000D05FE7F0BD00000018024000040050D9
:1006B00000080050000C005001488068704700009E
:1006C0000400002002488168027889188160704720
:1006D0000400002010B50848002401688215114369
:1006E0000160032000F00AF8002801D0012401E095
:1006F00000F028F8204610BD0020024070B50F4ED3
:10070000002431780546002915D07D20C000FFF770
:1007100065FD01460A480068FFF760FD00F086F8B5
:10072000002808D1042D06D200222946401E00F0E0
:100730001FF8756000E00124204670BD0400002011
:100740001000002008B5094801680122114301602A
:1007500000681040009005484038C26B01040A430D
:10076000C263C06B0840009008BD0000401002400A
:1007700010B501F073FD10BD06480749006889688F
:10078000064A4904490F8900515CC906C90EC84090
:1007900070470000100000200010024048250008AB
:1007A00010B5204CA068204A8006400F16D0A068E3
:1007B0008006410F501001290FD0A1688906490F0A
:1007C000022912D0A0688006400F042823D0A06818
:1007D0008006400F032821D0002010BD2068012191
:1007E0008004400F8140104612E0E1688B07E16809
:1007F0009B0F4906490F491C032B00D01046FFF7F9
:10080000EDFCE1684904490E4843E168490F491C81
:10081000FFF7E4FC10BD0120C00310BD7D200002E5
:1008200010BD0000001002400024F400094910B57A
:10083000401E884201D9012010BD074C6061032190
:10084000081F01F00BFD0020A0610720206100209F
:1008500010BD0000FFFFFF0000E000E070B50400E5
:1008600005D0254680356868002802D006E00120C2
:1008700070BD00202870204600F026F82420686013
:1008800020680168490849000160204601F09AFB90
:100890000128EDD0A06A002802D0204601F0FAFA23
:1008A000206841680922D202914341602068816832
:1008B0002A2291438160206801680122114301606E
:1008C000204601F04DFB70BD10B586B004461421E2
:1008D0006846FFF781FC1149206888421CD1104806
:1008E000C26B012149040A43C263C26B0A400592EC
:1008F000426B01210A434263406B0491084005901A
:100900000C2000900220019000200290039005200E
:1009100069460007FFF722FE06B010BD0044004004
:1009200000100240FEE7000070B583680022DB077C
:10093000DB0F02D00122104670BD8C684B68C56881
:100940002343CC68054E35402C432343C3600369E1
:1009500009689B009B080B430361ECE7C73FFFFF5F
:10096000F0B5C26800230122C46852058468E40718
:10097000E40F02D001231846F0BDC568104C1542A3
:1009800002D04D68F02D08D08E680D680F69354390
:10099000CE683E4335434E6905E0CE680D684F6929
:1009A00035430E693E433543C66826403543C5602E
:1009B000C4681442DFD04968826A0A438262DAE777
:1009C0003CC2FEFF10B543690424214007248C403B
:1009D000A3438A401343436110BD000008B5044996
:1009E0000A6802430A6009680140009108BD0000DE
:1009F00040100240F0B500244CE00123A3401A400F
:100A000047D04B68012B01D0022B0FD18E6885682F
:100A1000134653435F00DF19BD4373431D43856095
:100A2000CB684568534395431D4345600F69C668CD
:100A3000134653435D005D19AE435F433E43C660BA
:100A40004E68022E1FD1FF2A0ED817464A69066A41
:100A500094461A467A437A431701BF1ABE43674643
:100A60007A43164306620EE0160A324672434F6915
:100A700072437243BC461601B71A466ABE436746C4
:100A80007A43164346624A6806685343AE431E43A0
:100A90000660641C0A681346E340AED10020F0BD36
:100AA00008B504494A6B02434A63496B014000910F
:100AB00008BD00000010024008B504494A6B02431B
:100AC0004A63496B0140009108BD000000100240DC
:100AD00001490860704700001000002010B50A7B33
:100AE00003231B029A438B6801241A4301239B02B0
:100AF0009A434B68E4031A430123DB029A430B68D1
:100B00001A4301231B039A43CB891A4301235B0336
:100B10009A430B691A4301239B039A43CB6A1A43F6
:100B2000A2431A430F4B984219D10F231B049A4337
:100B30004B691A4363039A438B691A430F231B05BE
:100B40009A434B6A1A4363029A43CB691A43A3023E
:100B50009A430B6A896A1A43A3039A430A4342647D
:100B6000002010BD002C0140006A814301D000200C
:100B7000704701207047000010B5012910D00429EA
:100B800010D0102910D0402910D0CB1FF93B05D030
:100B900001239B0299420BD1052116E0042114E0A8
:100BA000002112E0012110E002210EE003210CE0FF
:100BB00001231B03994201D1062106E001231B04F6
:100BC000994201D1072100E00821084B18305B5CF5
:100BD00018180368054C1234615C03248C40120C15
:100BE000A3438A401343036010BD00000925000899
:100BF00010B5012910D0042910D0102910D0402997
:100C000010D0CB1FF93B05D001239B0299420BD199
:100C1000052116E0042114E0002112E0012110E07A
:100C200002210EE003210CE001231B03994201D1B4
:100C3000062106E001231B04994201D1072100E0AF
:100C40000821084B18305B5C18180368054C1234F7
:100C5000615CF0248C40120CA3438A401343036070
:100C600010BD00000925000810B5012910D0042985
:100C700010D0102910D0402910D0CB1FF93B05D03F
:100C800001239B0299420BD1052116E0042114E0B7
:100C9000002112E0012110E002210EE003210CE00E
:100CA00001231B03994201D1062106E001231B0405
:100CB000994201D1072100E00821036A044C615CDC
:100CC0000A248C40A3438A401343036210BD0000F2
:100CD0002425000810B5012910D0042910D01029AE
:100CE00010D0402910D0CB1FF93B05D001239B0227
:100CF00099420BD1052116E0042114E0002112E0F5
:100D0000012110E002210EE003210CE001231B036E
:100D1000994201D1062106E001231B04994201D129
:100D2000072100E00821036A044C615C0A248C401E
:100D3000A3438A401343036210BD000068250008E6
:100D400010B5012910D0042910D0102910D0402945
:100D500010D0CB1FF93B05D001239B0299420BD148
:100D6000052116E0042114E0002112E0012110E029
:100D700002210EE003210CE001231B03994201D163
:100D8000062106E001231B04994201D1072100E05E
:100D90000821084B18305B5C18180368054C1234A6
:100DA000615C0C248C40120CA3438A401343036003
:100DB00010BD00000925000870B50268174B184DDA
:100DC000984201D0A84203D17024A2434C68224328
:100DD000144E154C984208D0A84206D0134DA84294
:100DE00003D0B04201D0A04204D103252D02AA4372
:100DF000CD682A4302608A68C2620A888262984289
:100E000003D0B04201D0A04201D109690163416918
:100E1000012211434161002070BD0000002C0140FF
:100E20000004004000440140004801400020004010
:100E3000012910D0042910D0102910D0402910D039
:100E4000CA1FF93A05D00122920291420BD1052125
:100E500016E0042114E0002112E0012110E002213B
:100E60000EE003210CE001221203914201D1062180
:100E700006E001221204914201D1072100E008217D
:100E8000064A1830525C10180268044B09335B5C48
:100E9000042199408A430260704700000925000838
:100EA000012910D0042910D0102910D0402910D0C9
:100EB000CA1FF93A05D00122920291420BD10521B5
:100EC00016E0042114E0002112E0012110E00221CB
:100ED0000EE003210CE001221203914201D1062110
:100EE00006E001221204914201D1072100E008210D
:100EF000064A1830525C10180268044B09335B5CD8
:100F0000082199400A430260704700000925000843
:100F1000F8B50D4601210C032F1B0023504EA542AE
:100F200045D007DC012D35D0102D37D0FF3D012DE8
:100F300038D138E00F2424033D1B67D02401A5429B
:100F400030D1016A01252D05A9430162016A446D72
:100F5000444F3C4017683F023C436F00B943178A37
:100F60003F053943A94395882D052943B04205D053
:100F70003D4DA84202D03D4DA84207D1456801260B
:100F8000B604B5439669B602354345604465D268F8
:100F9000C26561E0114600F057FC02E0114600F026
:100FA00097FC01465AE0114600F0DAFCF9E7016AC5
:100FB00001242403A1430162016A4568C46903272F
:100FC0003F02BC43274F3C4017683F023C43012788
:100FD0007F03B94317693F03394301273F03B943EF
:100FE00057683F033943B04205D01F4EB04202D08C
:100FF0001E4EB04205D10126B603B5439669B6012F
:1010000035434560C461D268026425E0016A012568
:101010002D04A9430162016A446D154F3C401768D5
:101020003C436F00B943178A3F0439439788A9436B
:101030003F043943B04205D00B4EB04202D00B4EB4
:10104000B04205D14668AE4395692D022E434660F5
:101050004465D268846D8265016219460846F8BD10
:10106000002C0140FF8FFFFE00440140004801407A
:101070008FFFFEFF08B506490A690092421C00D0A6
:10108000401C0A69D20300D5401E0028F9D108BDD2
:1010900000E000E0F0B591B00024069407940894B5
:1010A000182168460994FFF797F818210AA8FFF756
:1010B00093F88C48416989008908416101210268DF
:1010C00009050A4302600068084010908548012124
:1010D0004038426B0A434263406B0E460840109012
:1010E00003200B900A9105200AA90E940007FFF730
:1010F00081FC7E4A7C48136805219B099B010B43B8
:1011000013607B49097841587A4A1140784A12782D
:1011100081507749012209785203415803231B0368
:1011200099431143724A12788150714909784158A4
:101130002022914311436E4A127881506C490978FC
:101140004158402291436A4A12788150684909788F
:10115000415880229143664A12788150644985152E
:10116000097841581A119143614A294312788150F4
:101170005F490215097841589B10994311435C4A15
:10118000127881505A4B584F1B785B4A5B4908379D
:10119000DA51574A3B1D1278D15055490A78011D42
:1011A0005258534B120C12041B7832435A50504978
:1011B000097841584E4A31431278815040030690D5
:1011C0004D480794089406A909944038FFF7ACFBF2
:1011D000494869034038C068884308434649403954
:1011E000C8600C4620688004C00FFBD00121490371
:1011F00021600020039100900321F02204910590CA
:10120000019269462046FFF7ABFB20694008400089
:1012100020612069012149078843206103220021C0
:101220002046FFF7CFFB022235492046FFF7CAFBD5
:1012300061680420814361606068082188436060C0
:10124000A068304F490638400843A0602F482E4917
:101250000068FEF7C3FF142148430A21FEF7BEFFD2
:1012600000E0401E0028FCD1A06A00090001A06235
:101270006069A8436061E06880088000E060A06861
:1012800017218843C9070843A0604D0C204E0AE08F
:10129000716928460A460240120488430243B2613B
:1012A0001420FFF7E7FEA068C00FF1D17069014676
:1012B0002940090485432943B1611420FFF7DAFE70
:1012C000A0683840401CA060E168032081430143CE
:1012D000E160A0683840001DA0600220FFF7CAFE50
:1012E00011B0F0BD40100240000002400008024072
:1012F00004250008EFBFFFFF40240140000000204C
:1013000004FFFF07E8FFFF7F400D030010000020EF
:101310000008005008B509480121826B0A43826326
:10132000806B0840064900900868FF221202904333
:101330000860012003494002086008BD0010024017
:1013400008E400E000E100E0F0B587B0182168464D
:10135000FEF742FF0220FFF7A3FB0420FFF7A0FBEC
:101360000120FFF79DFB0120144D8003A862470078
:10137000AF6210210522120791620024012600901D
:10138000029403946946019604942846FFF732FBC1
:101390000294039469462846009701960494FFF747
:1013A00029FB1020009005200294039469460196C1
:1013B00004940007FFF71EFB07B0F0BD00080050C3
:1013C00010B586B014216846FEF706FF0120C00361
:1013D000FFF704FB0021132000F01EFF132000F094
:1013E0000FFF0D486946088000210C480C4C019104
:1013F0000391029069462046FFF7DEFC20688021B9
:10140000884320602168012001432160E168014395
:10141000E16006B010BD00007F020000CF070000B1
:101420000020004030B58BB0142106A8FEF7D4FE92
:1014300018216846FEF7D0FE01204004FFF7CEFADF
:101440000220FFF739FB0225FF200024013005951B
:101450000090029403940195694604941E48FFF796
:10146000C9FA0121152000F0D7FE152000F0C8FEB2
:101470001A4869460883079409940A941848194C35
:10148000089006A92046FFF797FC20688021884332
:1014900020604A0201212046FFF76EFB0022012155
:1014A0002046FFF74DFC002201212046FFF7A0FB5C
:1014B000002201212046FFF7D7FB216A01200143CA
:1014C0002162E0682843E060206801210843206031
:1014D000081F20610BB030BD00040050FF18000051
:1014E000E70300000044014010B586B014216846AF
:1014F000FEF772FE01208004FFF770FA002116202B
:1015000000F08AFE162000F07BFE0D486946088038
:1015100000200C490C4C0190039002910490694604
:101520002046FFF749FC206880218843206021681D
:10153000012001432160E1680143E16006B010BD74
:101540007F020000E703000000480140F0B59FB0B3
:1015500014210CA8FEF740FE202117A8FEF73CFE40
:1015600030216846FEF738FE182111A8FEF734FE38
:101570000120C002FFF732FA1F21684601860024CD
:101580004748484D0E900D940F940CA9109428468E
:10159000FFF712FC28688027B843286001212846FD
:1015A000FFF77EFC60201C941894199417901A94ED
:1015B0001B941D9417AA01211E942846FFF7A8FC2E
:1015C00001212846FFF734FCAE1431462846FFF7C8
:1015D00067FC17AA31462846FFF79AFC3146284691
:1015E000FFF726FC686870218843686068680F21EF
:1015F000090588436860A868B843A860009401940E
:10160000684602940473C48168140490000305942E
:1016100006940890079409940A9469460B94284606
:10162000FFF75CFA296A0120014329620146284636
:10163000FFF79AFA012801D0FEF78DFF2A6A31469A
:1016400028460A432A62FFF78FFA012801D0FEF7E5
:1016500082FF2868012108432860686CC903084399
:1016600068640120FFF728FA0225FF2001300526D3
:1016700016953607119013941494129511A9159488
:101680003046FFF7B7F9A8021695119013941494F9
:10169000129511A915943046FFF7ACF91FB0F0BDB3
:1016A000E7030000002C0140F0B58DB0142106A81E
:1016B000FEF792FD18216846FEF78EFD3B48022199
:1016C000C26B0A43C263C06B08400B900120FFF756
:1016D000F3F90125402000240595009002270520FC
:1016E000029403946946019704940007FFF782F976
:1016F000802605200096029403946946000701970E
:1017000005950494FFF776F9032768460783079445
:1017100009942748274C089006A92046FFF74CFB60
:101720002068B0432060A068234908403843A06087
:10173000A7133A4601212046FFF71EFA0022012195
:101740002046FFF7FDFA0F22120501212046FFF780
:101750004FFA002201212046FFF786FA3A4610216F
:101760002046FFF709FA002210212046FFF7E8FA89
:101770000F22120510212046FFF73AFA002210210D
:101780002046FFF771FA6068702188436060A068A6
:10179000B043A060206A28432062216A10200143E0
:1017A00021622068284320600DB0F0BD0010024087
:1017B000FFFF000000040040F8FFFEFF10B50D48D9
:1017C0000B490160E1214902416000218160C16053
:1017D00001618161C16101620C22416242618162E9
:1017E000FFF73CF8002801D0FEF7B5FE10BD000061
:1017F000004400403800002010B5104A2021104855
:10180000FEF772FE0D4A0421921C10461030FEF7BE
:101810006BFE0A4A0421121D10461630FEF764FEC4
:101820000649891E0846821C408808810448898828
:10183000423081809188018110BD00001600002097
:10184000C8000020FEE7000030B5026A52085200CE
:101850000262026A43688469194DA408A4002C40FE
:101860000D682C430225AA430D692A4352084D688E
:1018700052002A43134DA84205D0134DA84202D06E
:10188000124DA84214D10825AA434D69AD002A4340
:101890000425AA438D68AD002A43FF250135AB43DB
:1018A0008D692B4301256D02AB43CD696D002B4340
:1018B00043608461C96841630262002030BD00005A
:1018C0008FFFFEFF002C0140004401400048014012
:1018D00070B5026A1025AA430262026A43688469ED
:1018E00003263602B4431A4E34400E68360234439F
:1018F0002026B2430E6936013243AA434D682D01BA
:101900002A43144DA84205D0134DA84202D0134DCE
:10191000A84215D18025AA434D69AD012A4340252F
:10192000AA438D68AD012A430125AD02AB438D6901
:10193000AD002B430125ED02AB43CD69ED002B43F8
:1019400043608461C96881630262002070BD000049
:10195000FF8FFFFE002C0140004401400048014081
:1019600070B5026AFF250135AA430262026A436824
:10197000C4691B4EA408A40034400E6834436E00B2
:10198000B2430E6936023243AA434D682D022A4300
:10199000144DA84205D0144DA84202D0134DA842C0
:1019A00017D10125ED02AA434D69AD022A43012555
:1019B000AD02AA438D68AD022A4301252D03AB4336
:1019C0008D692D012B4301256D03AB43CD696D015D
:1019D0002B434360C461C968C1630262002070BDCB
:1019E0008FFFFEFF002C01400044014000480140F1
:1019F00010B50C48002101824182416181618186DC
:101A0000816309497F230446084ADB051C340EC460
:101A10000EC40F2181874942C1871420FFF72AFB9A
:101A200010BD000008010020000010429A99993F63
:101A3000F1B582B069460820085E0027624C002894
:101A400001DDA77305E0002801DA102100E0202164
:101A5000A173A1796182A17B002904D0102904D04F
:101A6000202909D009E0208207E0574901221031DE
:101A700002A8FEF7DDFC00E0278210203C26205E55
:101A8000A65FB04201DB268204E03E21615E88420F
:101A900000DC218210201222205EA25E0192801AB8
:101AA0000092FEF787FC6061054633468321009A69
:101AB0000120C905454E9A4209DD6A0052088A4252
:101AC0001DDC3061FF20C005C5420ED218E03E2368
:101AD000E35E019A9A420EDA6A0052088A420EDCEC
:101AE00030610120C00585420ADB2946A06B00F069
:101AF00003FCA06304E06A0052088A4207DD3761F4
:101B00003148847B002C04D0102C1BD03FE0306186
:101B1000EBE72D488169284600F08CFC2A49496A88
:101B200000F030FC00903069FEF744FC2649096A59
:101B300000F028FC2449896B00F024FC064622486A
:101B4000C06917E020488169284600F073FC1E49EF
:101B5000096B00F017FC00903069FEF72BFC1A4966
:101B6000C96A00F00FFC1849896B00F00BFC0646AF
:101B70001548806A294600F005FC314600F0BCFBA0
:101B8000009900F0B9FBFEF7D9FB0F4988860E4893
:101B9000F5218561828E89008A4200D981860C4AAE
:101BA0000B494032002C07D0102C09D0202C02D138
:101BB000084848631060FEBD808E48631760FEBD14
:101BC000808E10604F63FEBD0801002014000020CD
:101BD000002C0140E7030000F8B5174C206980078E
:101BE000C00F18D0154E00273178F81E02250029A5
:101BF00012D001290FD1616B114A11812061E06877
:101C0000A843E060002201212046FFF763F8E06866
:101C10002843E0603770F8BD67622061E068A84340
:101C2000E060022201212046FFF754F8E0682843D3
:101C3000E06001203070F8BD004401401400002035
:101C40000801002010B515480821415E144B002200
:101C50001448994213DD1449496AAF239B00994205
:101C600002D98281028110BD0A21415E0B46203BD0
:101C7000252B01D3828110BD3239818110BD828133
:101C80000A4801214269890313460B401B04914312
:101C90000B4383610120FFF7EDF910BD1400002014
:101CA000AA0500000801002000440140000800507F
:101CB0007047704710B5FEF705FD10BD10B52448FC
:101CC00002210268D208D2000A4302600168490773
:101CD000490F0229FAD11F4801688215114301609A
:101CE00001684905C90FFBD01B49C2681B4B1A404C
:101CF0001143C16001680122120611430160C168ED
:101D000012011143C16001688901C90FFBD08168CC
:101D10000F2212029143816082680221D208D20010
:101D20000A4382603822816811401029FBD1816802
:101D300007221203914381600948FEF7C9FE032080
:101D4000FEF7DCFC002801D072B6FEE710BD0000F3
:101D50000020024000100240020800208C80FF1F7B
:101D60000090D003704710B500F002F810BD0000DD
:101D7000F0B536480169C907C90F66D00121C943CA
:101D800001613349C2134869034613401B0482436F
:101D900013438B612F48314C02882F4841894B00F7
:101DA000491CE25289B22E4A41818C46116860205A
:101DB000014002D11168102001402848284A4030D3
:101DC0000171526A0346D2B242719E7B224B224C71
:101DD0009F89FF2514347B000135002904D0102988
:101DE0000CD0002A15D016E0002A12D0002E12D1F5
:101DF000802A01D9A91A417141790BE0002A08D043
:101E0000102E08D1802A01D2A91A41714179691A8C
:101E100000E00021E1527F1C0F49BBB2104C8B81C6
:101E2000002262620489C8890E4645001C3674533C
:101E3000401C80B26446C881202C00D14A81042B0A
:101E400000D18A81042800D1CA81F0BD0020004061
:101E5000000800500000002014000020C8000020EE
:101E60000004004010B5FFF7B7FE10BD10B50748DD
:101E70000169C907C90F07D00121C943016104499C
:101E80000C20085EFFF7D4FD10BD000000480140A3
:101E90000801002010B5018DC90707D001684A6804
:101EA00001235B049A43C36A1A434A60018D890780
:101EB00007D501684A6801231B049A43036B1A4340
:101EC0004A60018D490707D501684A6801239B04D0
:101ED0009A43436B1A434A60018D090707D501688D
:101EE0004A680123DB039A43836B1A434A60018DDE
:101EF000C90607D50268916801231B039943C36B88
:101F000019439160018D890607D501688A6801230C
:101F10005B039A43036C1A438A60018D490612D50C
:101F200003685A6801210905446C8A4322435A60B8
:101F3000426C8A4207D10268516803235B059943CA
:101F4000836C19435160018D090607D501684A6801
:101F50000123DB04C06C9A4302434A6010BD0000B9
:101F6000FEB50546002680350446EE60FEF7A4FB6C
:101F7000019020680068124F000709D501210097E1
:101F8000002249052046019B00F0D0F800280DD121
:101F90002068006840070BD50121009700228905C1
:101FA0002046019B00F0C2F8002801D00320FEBDAE
:101FB00020206860A860E6662E700020FEBD00004C
:101FC000FFFFFF01F8B5044680682169E269084314
:101FD0006169002511432268084311684B4B194081
:101FE0000143116020684168032212039143E268B3
:101FF00011434160A169206A084321688A68444B03
:102000001A4002438A602068C16A626A09090901AC
:102010001143C1623F492068884211D13E4840695E
:102020008007800F0FD0012806D0022802D0032895
:102030000BD103E0022109E0042107E0082105E0BB
:102040003649884201D1002100E010210120E369D6
:10205000C003334A334E344F834227D1002906D080
:10206000022907D0042907D008293FD108E0FEF74C
:1020700083FB03E0104603E0FEF792FB00283AD012
:10208000616A4900715AFEF7A9F8616840004A0880
:102090008018FEF7A3F801461039B94226D8224924
:1020A000491C01400007400F084322E0002906D0E8
:1020B000022907D0042907D0082917D108E0FEF724
:1020C0005BFB03E0104603E0FEF76AFB002812D03A
:1020D000616A4900715AFEF781F861684A08801800
:1020E000FEF77CF801461039B94201D9012502E01A
:1020F00080B22168C86020460121403041850185B9
:102100000020206760672846F8BD0000F369FFCF14
:10211000FFF4FF110038014040100240004400402D
:102120000024F4002E250008EFFF0000FFB581B069
:1021300005461746044680350A9E54E0701C52D06E
:10214000FEF7BAFA0499401AB0422FD8002E2DD0CB
:1021500020680168490746D5C069C043000542D4DC
:1021600001202168C0020862EFF31080012181F391
:10217000108821680B68FF22A13293430B6080F323
:102180001088EFF31080012181F3108821688A689C
:10219000520852008A6080F3108820206860A8608E
:1021A000E86000202870032005B0F0BDEFF3108038
:1021B000012181F3108821680A68FF23A1339A4323
:1021C0000A6080F31088EFF31080012181F31088FA
:1021D00021688A68520852008A6080F310882020A3
:1021E0006860A860DDE72068C1690298884304D070
:1021F0000020B842A2D00020D6E70120F9E7000075
:10220000002805DBC106C90E01208840014908608D
:102210007047000000E100E08307FF22DB0E9A40D8
:102220008907090E9940002808DB830809489B00AC
:102230001B18186890430843186070470007000F88
:102240000838830804489B001B18D869904308434A
:10225000D861704700E400E000ED00E08307FF2252
:10226000DB0E9A408907090E9940002808DB830895
:1022700009489B001B181868904308431860704772
:102280000007000F0838830804489B001B18D86912
:1022900090430843D861704700E400E000ED00E09F
:1022A000FEF718FAFFF70AFDFFF74EF8FFF732F8CE
:1022B000FEF7F0FEFFF74AF9FFF782F8FFF7B2F8F2
:1022C000FFF7F2F9FFF77AFAFFF70EF9FFF790FB45
:1022D0000125084CAD03A561FF20F530FEF7CAFECD
:1022E000A5620520FEF7C6FEFFF786FAFFF7AAFCF7
:1022F000FAE700000008005070B501250400ED0762
:102300004C4020D4441A01D2001B0919C60D4B00C1
:10231000F2B2FF2A29D01B0E2CD000020C02D31AD5
:102320002C43DC402843051910D2280A02D3401C54
:102330006D0611D0761EF6058019FF2A00DA70BDF1
:10234000C00DC00570BD694000F07AF8012005435A
:10235000C541521C761CE8E764089C40C9016140F5
:102360008900E7D10124A043E4E71B0E440200D01A
:10237000034870BD002AFCD1C00FC00770BD00BF6C
:102380000000C07F70B5420064414B005C41120EFA
:1023900039D01B0E38D0FF2A3CD0FF2B3AD0400258
:1023A0004902400A490A060045184E43000A090A34
:1023B000D2184843ED017F3A0104731A4019190CF1
:1023C0004318990F04D001215B0849075B1A521C7E
:1023D000D80904D3401CF50301D19D0607D0FF2A7C
:1023E00008D2D50506D0E4072043401970BD012569
:1023F000A843F4E7002A01DCE00770BD2402FF20B7
:102400002043C00570BD1B0EFF2A03D0FF2B01D057
:10241000E00770BDFF2645003606B54206D84D00E0
:10242000B54203D8D218FF2A00D0E7E7004870BDB4
:102430000000C07F70B501250400ED074C4022D498
:10244000441A02D26C40001B0919C60D4B00F2B2AF
:10245000FF2A4BD01B0E50D000020C02D31A2C4383
:10246000DC40A843051B05D5AD0019D36D08761EC9
:10247000521E37D0F605280A01D2801970BD70416E
:102480006D0603D070BD6940FFF73CFF9C40090218
:102490006140490001D0401E70BD0124A04370BDC1
:1024A0006D081DD001202B0C01D12D0410302B0EF6
:1024B00001D12D0208302B0F01D12D01001DAB0FD2
:1024C00001D1AD00801CEB0F01D16D00401C6D00EF
:1024D000361A121A680AF5054019012A02DB70BD86
:1024E000002070BDC036300AC00770BD1B0E44020C
:1024F00001D1FF2B00D1024870BD002AF0D070BD81
:102500000000C07F081C3044580000000004040490
:102510003C3C000008000000080008000008000023
:102520000008000000020406080A0C101400010054
:1025300002000400060008000A000C001000200041
:1025400040008000000100000000000000000000CA
:102550000000000000000000010000000200000078
:10256000030000000400000000020406080A0C102A
:10257000140000009425000800000020380000002E
:1025800004010008CC250008380000207007000076
:10259000200100080000000001000000040000000D
:1025A000000000000024F400000000000000000013
:1025B000000000000000000000000000000000001B
:0C25C0000000000000000000000000000F
:04000005080000C12E
:00000001FF
