:020000040800F2
:1000000000090020CD00000801370008172500086E
:1000100000000000000000000000000000000000E0
:10002000000000000000000000000000A53D0008E6
:100030000000000000000000F1380008094100083D
:10004000DF00000800000000FD3A0008DF000008A3
:10005000DF000008DF000008DF000008DF00000804
:1000600000000000DF000008DF000008DF000008DB
:10007000DF000008DF000008DF00000800000000CB
:10008000DF0000081D4200085D420008E941000849
:10009000054200080D42000815420008DF00000874
:1000A000DF000008DF000008DF0000080D4F000837
:1000B0001D4F00082D4F00080348854600F090FAB8
:1000C000004800472D5600080009002004488047DA
:1000D00004480047FEE7FEE7FEE7FEE7FEE7FEE72F
:1000E000E5410008B900000830B50B460146002084
:1000F0002022012409E00D46D5409D4205D31D462E
:100100009540491B2546954040191546521E002D25
:10011000F1DC30BD70B500242546002801DA012449
:100120004042002901DA01254942FFF7DDFFAC42D8
:1001300000D04042002C00D0494270BD10B5202AAA
:1001400004DB0146203A9140002010BD914020235D
:100150009C1A0346E3401943904010BDD2B201E01F
:100160000270401C491EFBD270470022F6E710B512
:1001700013460A4604461946FFF7F0FF204610BD15
:10018000F8B502464A40D40F42004B0052085B08C3
:100190009A4202D20246084611464A0023D0C30DB5
:1001A0004A00DDB2120EAD1A202D35DA49020126C1
:1001B000490AF6058A19002C00D0524220214F1B13
:1001C0001146B9402A411018C20D9A4221D0002C84
:1001D00017D0012D08DCDA05801AD20F8019D2075A
:1001E000DBB200F064F9F8BDDA05801A01234000A3
:1001F0001B06C01880185A428018CA0F10434900C5
:1002000007E04908C2071143DA05801A801940083F
:10021000801800F044F9F8BD61000122511A001B5A
:10022000F7E70122D2075140AAE70122D207504046
:10023000A6E7024670B54A40D30FDB0740002DD039
:100240004A002AD0010E140E000212020919400AB7
:10025000520A8418E50104465443000A120A2E0487
:100260005043A4194219200CC543AA18120C0125A9
:10027000AD03521C521912047F39240400D0521CC1
:10028000104301D44000491EC2B20C06C009201818
:10029000401C4008802A02D003E0002070BD4008C6
:1002A0004000002900DA0020184370BDF0B51FB4EB
:1002B00088B00B990998002448400999C00F49005B
:1002C00049080991C0070B990090490049080B9112
:1002D00009990898A64608431CD00B990A98084328
:1002E00018D0099801244000420D4800410D09989A
:1002F00024050003000B204309900B980003000B1A
:1003000020430B9050181C494018002201901446BD
:10031000104605E0002001460DB0F0BD032801DACB
:10032000034600E003239C46C11A0AAE0AE05F00C0
:1003300008ADED5B4F00F75B7D430027AA187C41B9
:10034000491C5B1E6145F2DD410004AB5A52210499
:10035000120C0A43240C401C0828DFDB0198029091
:100360000099704601910090059B049A07990698A0
:1003700000F0E3F8D0E700000DFCFFFF70B54B0084
:100380005B0803430BD04B005C0D002633466542EF
:10039000B341D417AD1AA34102DB0020014670BD62
:1003A00012053018514170BDC217C10F504010B531
:1003B0004018CA079623002100F079F810BD00000C
:1003C0000EB5C217C10F5040CA0740180021054B97
:1003D0000293019200910A460B4600F0AEF803B07A
:1003E00000BD000033040000C20F410040020123A1
:1003F000400ADB05D207090EC0187F2901DA002068
:100400007047962903DC9623591AC84001E09639B3
:100410008840002AF4D040427047CB0FDB074900E8
:1004200010B5490802460A4307D00A0D07240903FC
:10043000E401090B121B002A01DC002010BDC900D9
:10044000440F0C43C100E018D205801800F027F8D3
:1004500010BD00000122D207002800DB101A00297D
:1004600000DB511A814270470122D207002800DBCD
:10047000101A002900DB511A8842704710B5202A53
:1004800004DB0846203AD040002110BD0B46D34083
:10049000D0402024A21A91400843194610BD0029DB
:1004A00004DA401C490001D140084000704770B494
:1004B0000024050C05D11024000402D1002921D00C
:1004C0001124050E01D100020834050F01D10001ED
:1004D000241D850F01D18000A41C002801DB4000F1
:1004E000641C002908D020252E1B0D46F540A14094
:1004F00000D001212943084301061B1B000ADB1D14
:1005000002D5002070BC7047DB0518188018002940
:10051000F8DA401C4900F5D170BC40084000704733
:1005200010B5002B08DA0024401C614192185B4191
:100530001A4301D14008400010BDF0B51FB482B08D
:1005400005460C0003D0084604F0A8FD02E004F0C4
:10055000A5FD20300246009021462846FFF7EEFD1B
:10056000049B059A04460F4618431143084314D0D0
:10057000184610431BD0009840210A1A18460599C6
:10058000FFF77CFF05460E46009A05990498FFF791
:10059000D5FD084305D0012004E02046394607B0C8
:1005A000F0BD0020C11705430E432C43374300998B
:1005B0000E986305401A7905E40A00220C43FD0AEF
:1005C0000A3002D500200146E9E70105101969410A
:1005D0000C9C0D9D00196941FFF7A2FFDFE70000A9
:1005E000064C0125064E05E0E36807CC2B430C3C86
:1005F00098471034B442F7D3FFF762FD485A000819
:10060000685A0008F8B5484C2246143A5061242034
:100610006160205EFFF7C8FE2168FFF71BFF02D86C
:100620002420205E09E02620205EFFF7BDFE216821
:10063000FFF71AFF04D82620205EFFF7B5FE2060E2
:10064000616800912068FFF7ECFD41007F224908B6
:10065000D20501270026354D914201DDA06000E062
:10066000A6602420205EFFF79FFE0099FFF7F2FEB0
:100670000BD2A1682E484A005208824222DCFF2099
:10068000C005AF60C14213D21DE02620205EFFF7F7
:100690008BFE6168FFF7E8FEA1680ED24A0024488D
:1006A000520882420EDC0120C005AF6081420ADBA5
:1006B000206AFFF765FD206205E04A001C485208E9
:1006C000824227DDAE60A668E1683046FFF7A9FDEB
:1006D000A169FFF7AEFD0746A868FFF765FE6169EF
:1006E000FFF7A7FD216AFFF7A4FD05463146206903
:1006F000FFF79FFD2946FFF743FD3946FFF740FD11
:10070000FFF772FE00B2A083E6600F2804DD0F2021
:10071000A08306E0AF60CBE70E21C943884200DA30
:10072000A1831C20205EF8BD440400202C00002082
:100730000000204110B50D4800210160416081603A
:10074000C1603F228183120602610162084A426150
:100750008161B42181844942C184142002F030FBBC
:100760000448C16801221143C16010BD4404002047
:100770008FC2F53C0014004070B50446407D0A2845
:1007800049D1E0780A2230382179504330380818AE
:10079000C0B203F05DF9204D0A22E870A079E1793A
:1007A0003038504330380818C0B203F051F968703F
:1007B000607A0A223038A17A504330380818C0B223
:1007C00003F046F9A870207B0A223038617B504341
:1007D00030380818C0B203F03BF9104E0A223070CE
:1007E000E07B217C3038504330380818C0B203F029
:1007F0002FF97070A07C0A223038E17C50433038E9
:100800000818C0B203F024F9B070207D3038C0B2AF
:1008100003F01EF9287070BD0C00002018010020A4
:10082000F1B56E4C714F228802216D486D4D6E4EB0
:10083000795E130004F049FC0C45071D2C465969EC
:10084000798B9FAFC4451021415E782902DD0021DC
:100850000520A7E00021082000F00CFC4B2000013F
:1008600002F0AEFA0021084600F004FC02202080CD
:100870008DE006210A2003F063F9012821D100212F
:10088000084600F0F7FBC82002F09AFA032017E0B0
:100890000221C943032003F053F9012811D152204A
:1008A00001F03AFEE86801210843E860FFF742FFE3
:1008B0004F4830600221795E009800F0DBFB042095
:1008C0002080F8BD002000F0D5FB0F2004F0BEFB17
:1008D0000128F6D10021084600F0CCFBC82002F028
:1008E0006FFAFFF727FF0520EAE76420009903F07D
:1008F00045F90128E5D1522001F00EFE3D48306057
:10090000C82002F05DFA0620DAE7002000F0B2FB12
:10091000142004F09BFB0128D3D1E8684008400074
:10092000E860FFF707FF0720CAE70F212D2003F03B
:1009300007F90128C5D1522001F0EEFDFFF7FAFEBC
:1009400000203060C82002F03BFA0820B8E70421FC
:10095000C943272003F0F4F80128B2D126483060BB
:10096000C82002F02DFAE86801210843E860FFF78B
:10097000E1FE0920A4E7002000F07CFB0F2004F03A
:1009800065FB01289DD10A202080FFF7D3FEC820F7
:1009900002F016FAF8BD1222825EFF205F3082421A
:1009A00003DD009800F066FBF8BD0021084600F06A
:1009B00061FBFFF7BFFEC82002F002FA0B207FE7C1
:1009C0000521192003F0BCF80128EDD1C82002F060
:1009D000F7F9FFF7AFFE0C2072E70000800400205B
:1009E0001C040020001000400800002030040020FB
:1009F0000000B4C20000F0410000B24270B541787E
:100A00001E4D01261E4CEE2908D0FF2905D1C178C4
:100A10008278080210436075EE7170BD0179BB29C0
:100A2000FBD1C2788178100600140843217D49006B
:100A30006052207D401CC0B220750828EDD1104ABC
:100A4000082110320E4804F06BFD0D481230811E53
:100A5000098801801221615E00200A31152900D227
:100A6000608220751220205EFFF7AAFC054A064B23
:100A7000FFF71CFCFFF7D1FCA860CDE700000020C9
:100A8000440100209A9999999999E93F10B5014636
:100A90000122024801F034FC10BD0000EC010020EE
:100AA00010B508210448FFF760FB0349002010310E
:100AB00008801039488210BD44010020F8B5014675
:100AC000384C3A4E0025384F605F32890B0004F0F5
:100AD000FCFA090617253C4043525A6524000221BE
:100AE000615E00F0C7FA522001F016FD3048056043
:100AF000FFF7D6FF2F480580F868400840000BE05C
:100B00002D4A0221515E00F0B5FA29480560FFF731
:100B1000C7FFF86801210843F860F8BD02F060F9EA
:100B200025480221415E0620305E00F0A3FA2348EA
:100B30001021415EC829F0DA032020721D490120EE
:100B40000880C82002F03CF9F8BD0F20FFF768FECE
:100B5000F8BD02F0DBFFF8BD1948417D0F2000F021
:100B600033F8FF200F221749913003F08FFB0F203D
:100B700002F0C0FEF8BD0A21715E104602F0E0FFEF
:100B800009E02572F8BDF86801210843F8601046B5
:100B9000F16803F0A5FC0128F3D0F8BD03F004F9D7
:100BA000EFE70000D20400200010004044000020C5
:100BB0000800002080040020300400201C040020D5
:100BC0004401002026020000F8B5FB480F4640888B
:100BD000FC4A02210125F94CF94E515E030004F054
:100BE00074FA104F0914252F3E50616E7E8F99AA1A
:100BF000BDF9F84F522001F08FFCE068400840003A
:100C0000E06000203060022056E006212F2002F034
:100C100097FF012834D1FF20F53002F0D1F8EA48DF
:100C20003060E0682843E060032045E0002000F0E9
:100C300021FA0A2004F00AFA012821D1042017E041
:100C40000621032002F07CFF012819D1FF20F53096
:100C500002F0B6F8E0682843E06005202CE00020B0
:100C600000F008FA0A2004F0F1F9012808D1062062
:100C7000D1494880E06840084000E060FFF75AFD35
:100C8000F8BD0021084600F0F5F902F03FFF012809
:100C9000F6D1CE48407D0028F2D0522001F03CFC35
:100CA000072009E0C8483060FF20F53002F088F8DE
:100CB000E0682843E0600820BF494880F8BD002074
:100CC00000F0D8F90A2004F0C1F90128F6D1E06853
:100CD00040084000E060FFF72DFD0920ECE7062109
:100CE000072002F02DFF0128E8D1FF20F53002F0A7
:100CF00067F800203060E0682843E0600A20DBE706
:100D0000002000F0B7F90A2004F0A0F90128D5D19D
:100D10000B20ADE70621312002F012FF0128CDD1D2
:100D200000203060E0682843E060FF20F53002F0EA
:100D300047F80C20C0E7002000F09CF9142004F0D4
:100D400085F90128BAD1E06840084000E060FFF76B
:100D5000F1FC99480D2141808580F8BD96480E220E
:100D6000D2438088032F77D0AA2F74D0BB2FF4D121
:100D7000914F030004F0A9F90A0607101F2F394408
:100D80004D516006E9E790483060642002F018F8A1
:100D9000E0682843E0606EE0002000F06BF914206A
:100DA00004F054F90128D8D1E06840084000E06020
:100DB000FFF7C0FC65E00F21082002F0C1FE01280A
:100DC000CBD17D20C00001F0FBFFE0682843E0604C
:100DD00067E032E123E1002000F04CF9142004F038
:100DE00035F90128B9D1052072E00F21082002F061
:100DF000A7FE0128B1D17D20C00001F0E1FFC4E0D1
:100E000011460A20C6E07D20C00001F0D9FF07206E
:100E1000BCE000203060642067E0002000F02AF988
:100E2000142004F013F9012897D1E068400840002D
:100E3000E060FFF77FFC64E00F21142002F080FEE9
:100E400001288AD1C82001F0BBFFE0682843E06098
:100E50000A20E0E000E061E0574F030004F035F9BC
:100E60000B07080D13232F3A3D4CC55B070074E7B1
:100E70000621242061E0022088E05548306064208B
:100E800068E0032082E0002000F0F4F8142004F071
:100E9000DDF80128EBD1E06840084000E060FFF792
:100EA00049FC042072E00F2105205BE07D20C0009A
:100EB00001F086FFE0682843E060052066E000203E
:100EC00000F0D8F8142004F0C1F80128CFD1062092
:100ED000B880CFE60F2105205CE011460A2002F021
:100EE0002FFE0128C3D17D20C00001F069FFE0681A
:100EF0002843E060082049E0002030607D20C000E9
:100F00006DE0092042E0E06840084000E060FFF743
:100F100011FC0A203AE00F210A2071E0264F03005D
:100F200004F0D3F80B080914071E25363E5A636CEB
:100F30000800A8E711E70121042002F001FE0128C2
:100F400095D17D20C00001F03BFF94E7214830603F
:100F50007D20C00001F034FFE0682843E06090E7A6
:100F60000F21082002F0ECFD01289FD0F8BD0020E1
:100F700000F080F8142004F069F80128F6D1E06848
:100F800040084000E060FFF7D5FB0620B880F8BDC0
:100F90000F21084602F0D4FD012800D133E7F8BD47
:100FA0001146142002F0CCFD0128F8D17D20C000AC
:100FB00001F006FF9EE700008004002000100040C2
:100FC00008000020300400200000B442440100204A
:100FD000000034C20000B4C200203060642001F080
:100FE000EFFEE0682843E0608BE7002000F042F865
:100FF000142004F02BF8012885D0F8BD0F2114200F
:1010000002F09EFD0128F8D1C82001F0D9FEE06869
:101010002843E0600B20B8800E207880F8BD0020C7
:1010200000F028F8142004F011F80128F6D1FFF799
:1010300081FB0E4830600F203EE6002000F01AF8D9
:10104000142004F003F80128E8D1E06840084000CB
:10105000E060FFF76FFB522001F05EFA0020306085
:10106000034810214180C580F8BD00000000B4C2D3
:10107000800400200E2210B5D2430F2801DD0F207E
:1010800002E0904200DA10460F4C0F2901DD0F21DB
:1010900005E0914201DA114601E000290ED0E1801D
:1010A0006180A18021800623E35E0422A25E0221EA
:1010B000615E0020205E02F0F3FF10BD4142A1807E
:1010C0002180E0806080EEE72C00002072B6FEE711
:1010D00010B500220449054800F09BFA002204499B
:1010E000024800F0B9FA10BD3C0000206400002066
:1010F0006C040020F0B5002808D0014620314A7960
:10110000022A05D00422C263002008710120F0BD2C
:10111000026813680E24A3431360426C1468FF2313
:1011200001339C431460026814686408640014600E
:101130000C4A5568066C1C24264001242746B740FB
:101140003D435560826CC56C5560026D002A05D028
:1011500015689D431560826D406D42604C710020A2
:101160000871F0BD00000240F8B5002402462032AC
:101170005179022903D00421C16301242DE00168C3
:101180000B680E25AB430B6001680B685B085B00C6
:101190000B60416C0B68FF250135AB430B601049B8
:1011A0004D68066C1C231E4001231F46B7403D437B
:1011B0004D60816CC56C4D60016D002906D00E68D4
:1011C0001D02AE430E60416D856D4D60537100216F
:1011D0001171816B002900D088472046F8BD0000BE
:1011E0000000024070B5044600F0C2F80546601CDD
:1011F00002D004480078241800F0BAF8401BA0423E
:10120000FAD370BD18000020F0B5002303249AE043
:101210002A4601259D402A407ED00E79B607B60F9A
:10122000012E01D0022E16D186682746B4465E00F4
:10123000B646B7406646BE43B446CF687646B7402A
:101240006646374387604668AE430D79ED06ED0F7D
:101250009D40354345600D79ED43AD0708D0C56825
:101260005F002646BE40B5438E68BE402E43C66032
:101270000D79AD07AD0F022D0ED1DD08AD002D1893
:10128000AC462D6A5E07F60E0F27B740BD430F69C7
:10129000B7402F4365462F6205685F002646BE4073
:1012A000B5430E79B607B60FBE402E4306604D68B3
:1012B000AD03AD0F46D09E08264DB6007519AC465D
:1012C0002D6E9E07F60E0F27B740BD4305273F073B
:1012D000B84201D100270FE01F4FB84201D10127CA
:1012E0000AE01E4FB84201D1022705E01C4FB84268
:1012F00001D1032700E00527B7402F43154D66466F
:1013000037662D684E689543F60200D51543114F98
:101310003D607D68954300E014E04E68B60200D55C
:1013200015437D600B4D80356E684F689643BF0353
:1013300000D516436E602E684F689643FF0300D5B4
:1013400016432E605B1C0A681546DA4000D05FE742
:10135000F0BD0000001802400004005000080050DA
:10136000000C0050002A01D08161704781627047F3
:10137000014880687047000018000020024881681A
:1013800002788918816070471800002010B508485D
:1013900000240168821511430160032000F00AF85F
:1013A000002801D0012401E000F028F8204610BDFB
:1013B0000020024070B50F4E002431780546002908
:1013C00015D07D20C000FEF78FFE01460A48006858
:1013D000FEF78AFE00F0B2FC002808D1042D06D2E8
:1013E00000222946401E00F02FF8756000E001241D
:1013F000204670BD180000202400002008B50B48CE
:101400000168012211430160006810400090074804
:101410004038C26B01040A43C263C06B08400090AD
:101420000320400200F080FC08BD00004010024094
:10143000002805DBC106C90E01208840014908606B
:101440007047000000E100E010B503F079FE10BD28
:101450000648074900688968064A4904490F890017
:10146000515CC906C90EC840704700002400002026
:10147000001002401C5A000810B5204CA068204AF9
:101480008006400F16D0A0688006410F5010012939
:101490000FD0A1688906490F022912D0A0688006E2
:1014A000400F042823D0A0688006400F032821D0D5
:1014B000002010BD206801218004400F81401046AB
:1014C00012E0E1688B07E1689B0F4906490F491C50
:1014D000032B00D01046FEF707FEE1684904490ED1
:1014E0004843E168490F491CFEF7FEFD10BD01208D
:1014F000C00310BD7D20000210BD0000001002409E
:101500000024F400F7B5054604462035287A012862
:101510001CD001202872022068722168CA2048620B
:10152000216853204862206881690127BF02B943BE
:1015300081612068C16D04221143C1652048C068E3
:10154000400619D4FFF714FF064611E00220FEBD45
:10155000FFF70EFF811B7D20C000814208D9216862
:10156000FF20486203206872002028720320FEBD1D
:101570002068C0684007EBD5216801984861206861
:101580008169C908C900816120688169029A114393
:1015900081610C4801680122D20411430160206876
:1015A00081695211114381612068816939438161E8
:1015B0002168FF2048620120687200202872FEBD69
:1015C00000280040801802400068C16D04221143C9
:1015D000C1650548054A4188491C89B2418091424C
:1015E00001D90021418070473800002010270000F9
:1015F00010B504460068016D490706D5C16D042287
:101600001143C1652046FFF7DFFF012020346072DF
:1016100010BD10B500680B464068C021C9430140A9
:101620000002000ECC04D870E40E5C708C06A40E90
:101630000904490F9C701970002A0AD102F000FABF
:10164000D870587802F0FCF95870987802F0F8F9E0
:101650009870002010BD000010B50B460168896825
:101660005960016809694904490C9960006801687A
:101670000E4801408802800E4C041870640E5C70A5
:101680004C06640E4902C90F9C70D970002A0AD119
:1016900002F0D6F91870587802F0D2F9587098789C
:1016A00002F0CEF99870002010BD00007F7F7F000F
:1016B00070B504460120002C49D025462035687AB3
:1016C000002806D128721120C0026060204600F078
:1016D00041F8022068722168CA20486221685320BC
:1016E0004862204602F0C0F9002829D120688169AB
:1016F000174A1140816121688869A268E369104333
:1017000062691A4310438861216820690861206872
:101710000169A289120411430161204602F0C6F951
:1017200000280DD121688A69D200D2088A61226816
:101730009169636AA6691943236A33431943916126
:101740002268FF215162002801D10121697270BD18
:10175000BFFF8FFBF8B500682D49884256D12D4850
:10176000C269032109020A402A49831540399A4275
:1017700038D00024CE6B82051546B5430126002DD6
:1017800006D0CC6B1443CC63CC6B14400094012482
:10179000214D2F68FF05FF0F06D12F681F432F60D3
:1017A0002F68FF05FF0FFBD0C76901252D042F43CC
:1017B000C761C769AF43C761C5691827BD43C56124
:1017C000C5693543C561C569AD07ED0FFBD0C56976
:1017D00003263602B5431D43C561002C02D0CB6BF6
:1017E0009343CB63C2690123DB031A43C261CA6B13
:1017F00058110243CA63C96B00220140009111468F
:101800000220FFF721FE0220FFF712FEF8BD0000C4
:10181000002800404010024000700040F8B5064625
:1018200005462036307A0B4601280FD00127377243
:1018300002207072002A0BD0D8789C7800040443F0
:101840005878097800024903084317E00220F8BDE0
:101850005878C10603D5EF2108400A305870D8786F
:1018600002F0F6F80404587802F0F2F8000204439B
:10187000987802F0EDF8044318784003044329688F
:10188000CA204862296853204862284602F0ECF8D2
:10189000002806D10748044028684460284602F022
:1018A00005F92A68FF215162002800D177720021D2
:1018B0003172F8BD3FFFFF00F7B5064605462036FA
:1018C000307A0C46012810D001203072022070724C
:1018D0002968CA204862296853204862284602F0D5
:1018E000C3F80027002802D027E00220FEBD02989E
:1018F00000282868806926D0400600D4E770207848
:10190000A378000403436078E17800028905084366
:10191000034318480340286803602868816901224E
:101920009204914381612169E068084329688A69CA
:1019300010438861284602F0B9F82A68FF215162F5
:10194000002813D014E0400600D4E770207802F09D
:101950007FF80304607802F07BF800020343A0786C
:1019600002F076F80343E0788005D1E70121717237
:101970003772FEBD7F7F7F0070B504460068C16886
:10198000A0229143C160FFF7F3FC7D260546F600D7
:1019900006E0FFF7EDFC401BB04201D9032070BD0B
:1019A0002068C0688006F4D5002070BDF8B504003A
:1019B0000CD0606A002500280AD0256165612646A2
:1019C0004036A562707F002808D00BE00120F8BDEA
:1019D0006168C81FFD38F2D0E561F0E73577204631
:1019E00000F05CF802227277206801684023994376
:1019F00001600723E1681B02994201D9002001E040
:101A0000012000030F273F02B94202D0994200D0C3
:101A1000A562FF236168053319402127A368BF022F
:101A20003B40194323691340227D1943D207D20F4B
:101A300011430123A2695B021A401143E269382372
:101A40001A401143226A80231A401143A26A9B0163
:101A50001A40114322681160A1690422090C114047
:101A6000626A10231A401143626B08231A40114323
:101A70000F23E2681B021A40114301221203104097
:101A80000143206841602068C16952109143C161DF
:101A90002566012070770020F8BD000070B586B083
:101AA000044614216846FEF760FB1F4920688842FF
:101AB00037D11E49C86918229043C8611B48403875
:101AC000C26B012189030A43C263C26B0A400592BB
:101AD000416B022529434163406B00242840059057
:101AE000042000900120124E04900294019503946A
:101AF00069463046FFF788FB680200900520049095
:101B000002940195039469463046FFF77DFBA802D5
:101B10000090029403946946019504943046FFF7BF
:101B200073FB06B070BD000000380040401002405A
:101B300000040050FFB5044683B00120019000204E
:101B4000254640350090287F0C9F1E4601280FD067
:101B500001202877FFF70CFC0290687F616801285C
:101B60000DD0CA1FFD3A08D1A168002905D102E0B5
:101B7000022007B0F0BD042801D00220D1E0049873
:101B8000002820D0059800281DD0002E1BD0687F8B
:101B9000042801D00520687700202066059921647B
:101BA000EE80AE800499A163E687A687E064206595
:101BB00007210120E268090200038A422268536873
:101BC00003D9834302E00120ABE003435360206864
:101BD0000268520603D4026840231A430260E06898
:101BE0008842606844D9002801D0012E39D1A06B09
:101BF00021680088C860A06B801CA063E08F401E35
:101C0000E0872EE020688168890710D5E18F0029E0
:101C10000DD0019901290AD1A16B0988C160A06B7F
:101C2000801CA063E08F401EE087002001902068A8
:101C30008168C9070DD0E98800290AD0C068216CE5
:101C40000880206C801C2064E888401EE880012009
:101C50000190FFF78DFB0299401AB84201D3781C1E
:101C60005ED1E08F0028CDD1E8880028CAD146E0B7
:101C7000002801D0012E3CD1A06B216800780873A8
:101C8000A06B401CA063E08F401EE08731E020681D
:101C90008168890710D5E18F00290DD001990129AC
:101CA0000AD1A16B09780173A06B401CA063E08F7F
:101CB000401EE0870020019020688168C9070DD090
:101CC000E98800290AD0007B216C0870206C401C38
:101CD0002064E888401EE88001200190FFF748FB5F
:101CE0000299401AB84202D3781C02D018E0002FA3
:101CF00016D0E08F0028CAD1E8880028C7D139461D
:101D00002046029A01F060FF002803D001200090D5
:101D1000202020660120687700202877009828E797
:101D200003200090F6E7000003490A6803235B02E2
:101D30009A4302430A60704700000140094910B508
:101D4000401E884201D9012010BD074C606103216B
:101D5000081F03F0F5F90020A06107202061002092
:101D600010BD0000FFFFFF0000E000E010B50146DD
:101D700080310A78012A15D001220A7024224A6093
:101D80000268136814686408640014600122520732
:101D900093430022426600680360202048600A7076
:101DA000104610BD022010BD7047704770B5044644
:101DB00005468034207801281AD001202070242084
:101DC000606028680668026852085200026028684D
:101DD000826807235B069A430A438260284602F022
:101DE0009BFB28680660202060600020207070BD8A
:101DF000022070BD70B50446054680342078012865
:101E000019D00120207024206060286806680268CC
:101E100052085200026028688268D200D2080A4341
:101E20008260284602F078FB286806602020606007
:101E30000020207070BD022070BD70477047704751
:101E4000F8B503680446D96918689A68B24D0E4619
:101E50002E4025468035002E75D0B04EB04F16402E
:101E6000074037436ED0CF0706D0C70504D50127FA
:101E70001F62EB683B43EB608B0708D5D30706D0A6
:101E8000276802233B62EB6804273B43EB604B0768
:101E900008D5D30706D0276804233B62EB680227E6
:101EA0003B43EB600B0709D520230340334305D0A8
:101EB000266808233362EE681E43EE600B0509D5E1
:101EC000430107D501232668DB023362EB68202635
:101ED0003343EB60EB68002B42D089060AD5202102
:101EE0000840C9050A40104304D0216F002901D0E1
:101EF00020468847E86821688968490602D4282175
:101F0000084232D0204602F0CBFB216888684006A8
:101F100027D5EFF31080012282F310888B684022CE
:101F200093438B6080F31088E06F002819D07D49BF
:101F30008163E06FFFF718F9002811D0E06F816B23
:101F40000DE000E017E08E0615D5012720263F079B
:101F5000064017403E430ED0216FB1E0204688472F
:101F6000F8BD2046FFF76BFFF8BD2046FFF767FF7F
:101F70000020E860F8BDE66E012E7CD1CE067AD551
:101F8000C60678D510221A6223689868264640064D
:101F90004036002847DAE16F086840680004000C0A
:101FA000E8D0B78B8742E5D9F083086800688006DF
:101FB00034D4EFF31080012181F3108819681701E0
:101FC000B943196080F31088EFF31080012181F389
:101FD000108821688B685B085B008B6080F3108839
:101FE000EFF31080012181F3108821688B6840276E
:101FF000BB438B6080F310882020A8600020E0663F
:10200000EFF31080012181F3108821680B6893435E
:102010000B6080F31088E06FFFF76CF8B08BF18BEA
:10202000401A81B233E0B08BF18B401A81B2F08B51
:1020300000289FD000299DD0EFF31080012686F361
:1020400010881E68FF272137BE431E6080F310886A
:10205000EFF31080012383F3108823689E682F4FCD
:10206000FF433E409E6080F310882020A86000203F
:10207000E066206700E00EE0EFF31080012383F3B9
:10208000108823681D6895431D6080F310882046E2
:10209000FFF78AFEF8BDCE0208D5560206D501200C
:1020A000000518622046FFF7C9FEF8BD0E060BD5E5
:1020B00001278026FF0506403A40164304D0616F91
:1020C000002900D04AE7F8BD4A0614D5420612D5C9
:1020D0002046EFF31081012282F310881C68402211
:1020E00094431C6081F310882021696000214167BE
:1020F00000F010FAF8BD0A0205D5420003D52046CB
:10210000FFF79BFEF8BDC901FCD50028FADA20468E
:10211000FFF74BFEF8BD00000F08000001000010A3
:10212000200100048D46000870B5040005D0254646
:1021300080356868002802D006E0012070BD0020CC
:102140002870204600F026F8242068602068016886
:10215000490849000160204602F00CFD0128EDD03D
:10216000A06A002802D0204602F0F8F920684168F1
:102170000922D20291434160206881682A2291435A
:10218000816020680168012211430160204602F04D
:102190004BFA70BDF0B587B0044614216846FDF7D0
:1021A000E4FF514920680025504C0226884226D180
:1021B000002000F00DFB0320000400F013FB4B484F
:1021C0004030026871030A430260006808400590CD
:1021D000606B30436063606B029530400590C020B7
:1021E000009003956946019604954148FFF70CF865
:1021F000002211461B20FFF727F91B2028E03D494C
:102200000127884228D1002000F0E2FA0320800450
:1022100000F0E8FAE16B78040143E163E16B01400F
:102220000591606B38436063606B029538400590A0
:102230000C2000900520694604970196039500073D
:10224000FEF7E2FF002211461C20FFF7FDF81C20DC
:10225000FFF7EEF807B0F0BD274988421BD10020F8
:1022600000F0B6FAE16B012080040143E163E16B09
:1022700001400591606B30436063606B02953040B4
:10228000059003200002009004200490019603951D
:10229000694617481EE019498842DBD1002000F04A
:1022A00097FAE16B0120C0040143E163E16B014057
:1022B0000591606B38436063606B0295C007C00F87
:1022C00005900320009004200490052001960395BA
:1022D00069460007FEF798FF002211461D20FFF710
:1022E000B3F81D20B4E700000038014000100240A0
:1022F000000400500044004000480040004C0040F2
:1023000070B5034680339C68202C29D100290BD05E
:10231000002A09D0012584682D03AC4206D1046946
:10232000002C03D1CC0701D0012070BD1C78012CFA
:1023300016D001241C700023C366046863681B0266
:102340000BD5EFF31083012585F31088256801264E
:10235000B6063543256083F3108802F0D3FC70BDC8
:10236000022070BD10B52F4B026800212E489A4202
:1023700021D12E4B427804789C5401240A2A02D39E
:102380004170847113E0002A05D0012A08D05978E1
:1023900053290AD00BE01A78552A04D1447006E07C
:1023A0005B78532B01D0417001E0521C4270012236
:1023B0001D491F4819E01F4B9A4219D11A4AC37888
:1023C00084781032D4545B1CDBB2C3701478AA2C0E
:1023D00002D01160117101E0052B00D3C170817032
:1023E000114913480122891C9038FFF789FF10BD5D
:1023F000114B9A42FBD10D4B42790B3304799C541B
:10240000152A04D2002A04D11B78412B01D0417136
:1024100001E0521C4271044904480122091D683040
:10242000E3E700000048004000000020F400002026
:102430007C0200200044004000380140FFB5064601
:1024400004468036706883B00D46202860D1002D88
:102450000CD00598002809D00120A1680003814212
:1024600007D12069002804D1E80702D0012007B075
:10247000F0BD307801284BD0012030700020F06092
:1024800021207060FEF774FF0190274640370598C1
:10249000B8820598F8820120A1680003814202D128
:1024A0002069002804D0029500250020307015E036
:1024B00000200290F9E700228021204602F0BCFCB7
:1024C000002818D10298002817D021680078886267
:1024D0000298401C0290F88A401EF882F88A019BFC
:1024E000002806980090E6D100224021204602F004
:1024F000A3FC002808D00320B9E728882168C0057C
:10250000C00D8862AD1CE6E7202070600020AEE7B9
:102510000220ACE77047FEE710B50A49652809D0EC
:1025200004DC522806D0602805D103E0662801D0DB
:10253000672800D18870FF23032202490248FFF771
:102540007DFF10BD2C0100207C02002010B50E4C38
:10255000A179002917D04178532912D1C179827904
:10256000080600141043FDF72BFF0E22D243FDF79F
:1025700005FF0022054BFDF799FEFDF74EFF0449CC
:1025800008610020A07110BD00000020008066409E
:102590002C0100200548FF210170AA214170002173
:1025A0008160C16001614161704700002C01002021
:1025B00010B5014601220248FFF7A2FE10BD00003F
:1025C0007C02002030B51F4A0021137810461E4CB3
:1025D0001A30002B01D02160017255780123002DA3
:1025E00001D0216003729178002901D0022101728B
:1025F000D178002901D00321017214791349002CEC
:10260000047A1AD0052C01D082248C6351790029D8
:1026100003D0052101720E494B809179002901D028
:1026200006210172D179002901D007210172117AA6
:10263000002901D00821017230BD052CE6D03724D5
:10264000E3E70000B804002008000020004001403B
:102650008004002070B5154C01222546283D211D1F
:10266000A81D02F047FF20460122A11D203802F0DC
:1026700041FF0420205E00260A2807DB0620285E92
:102680000A214042FDF746FD208000E0268006201A
:10269000205E0A2807DB0820285E0A214042FDF759
:1026A00039FD608070BD668070BD0000D2040020DE
:1026B00008B50449CA6B0243CA63C96B0140009163
:1026C00008BD00000010024008B504490A68024332
:1026D0000A6009680140009108BD000040100240F6
:1026E000F0B500244CE00123A3401A4047D04B68CA
:1026F000012B01D0022B0FD18E68856813465343FE
:102700005F00DF19BD4373431D438560CB68456897
:10271000534395431D4345600F69C66813465343B1
:102720005D005D19AE435F433E43C6604E68022EB6
:102730001FD1FF2A0ED817464A69066A94461A46E0
:102740007A437A431701BF1ABE4367467A4316435A
:1027500006620EE0160A324672434F6972437243B4
:10276000BC461601B71A466ABE4367467A4316430B
:1027700046624A6806685343AE431E430660641CC3
:102780000A681346E340AED10020F0BD08B5044905
:102790004A6B02434A63496B0140009108BD000047
:1027A0000010024008B504494A6B02434A63496B72
:1027B0000140009108BD0000001002400349CA69B1
:1027C00018239A430243CA61704700004010024038
:1027D0000349CA6918239A430243CA61704700003B
:1027E0004010024003494A69030C9A4380B20243F5
:1027F0004A6170474010024001490860704700007C
:102800002400002010B50A7B03231B029A438B6827
:1028100001241A4301239B029A434B68E4031A43A1
:102820000123DB029A430B681A4301231B039A43DB
:10283000CB891A4301235B039A430B691A43012393
:102840009B039A43CB6A1A43A2431A430F4B984205
:1028500019D10F231B049A434B691A4363039A430C
:102860008B691A430F231B059A434B6A1A43630271
:102870009A43CB691A43A3029A430B6A896A1A43A3
:10288000A3039A430A434264002010BD002C014078
:1028900010B5012910D0042910D0102910D04029DA
:1028A00010D0CB1FF93B05D001239B0299420BD1DD
:1028B000052116E0042114E0002112E0012110E0BE
:1028C00002210EE003210CE001231B03994201D1F8
:1028D000062106E001231B04994201D1072100E0F3
:1028E0000821084B18305B5C18180368054C12343B
:1028F000615C03248C40120CA3438A4013430360A1
:1029000010BD0000D059000810B5012910D00429CD
:1029100010D0102910D0402910D0CB1FF93B05D082
:1029200001239B0299420BD1052116E0042114E0FA
:10293000002112E0012110E002210EE003210CE051
:1029400001231B03994201D1062106E001231B0448
:10295000994201D1072100E00821084B18305B5C47
:1029600018180368054C1234615CF0248C40120C7A
:10297000A3438A401343036010BD0000D0590008F0
:1029800010B5012910D0042910D0102910D04029E9
:1029900010D0CB1FF93B05D001239B0299420BD1EC
:1029A000052116E0042114E0002112E0012110E0CD
:1029B00002210EE003210CE001231B03994201D107
:1029C000062106E001231B04994201D1072100E002
:1029D0000821036A044C615C0A248C40A3438A40AA
:1029E0001343036210BD0000EB59000810B5012924
:1029F00010D0042910D0102910D0402910D0CB1F9E
:102A0000F93B05D001239B0299420BD1052116E029
:102A1000042114E0002112E0012110E002210EE067
:102A200003210CE001231B03994201D1062106E09A
:102A300001231B04994201D1072100E00821036A08
:102A4000044C615C0A248C40A3438A401343036214
:102A500010BD00003C5A000810B5012910D004290F
:102A600010D0102910D0402910D0CB1FF93B05D031
:102A700001239B0299420BD1052116E0042114E0A9
:102A8000002112E0012110E002210EE003210CE000
:102A900001231B03994201D1062106E001231B04F7
:102AA000994201D1072100E00821084B18305B5CF6
:102AB00018180368054C1234615C0C248C40120C0D
:102AC000A3438A401343036010BD0000D05900089F
:102AD000F0B50268194B1A4C984201D0A04203D1BC
:102AE0007025AA434D682A43164D174E174F98423A
:102AF0000AD0A04208D0164CA04205D0A84203D06C
:102B0000B04201D0B84204D103242402A243CC68CD
:102B1000224302608A68C2620A888262984205D0B3
:102B2000A84203D0B04201D0B84201D10969016383
:102B300041690122114341610020F0BD002C014098
:102B400000040040004001400044014000480140B2
:102B500000200040012910D0042910D0102910D0E5
:102B6000402910D0CA1FF93A05D0012292029142A1
:102B70000BD1052116E0042114E0002112E001210F
:102B800010E002210EE003210CE001221203914229
:102B900001D1062106E001221204914201D1072150
:102BA00000E00821064A1830525C10180268044BF5
:102BB00009335B5C042199408A430260704700003E
:102BC000D0590008012910D0042910D0102910D0A4
:102BD000402910D0CA1FF93A05D001229202914231
:102BE0000BD1052116E0042114E0002112E001219F
:102BF00010E002210EE003210CE0012212039142B9
:102C000001D1062106E001221204914201D10721DF
:102C100000E00821064A1830525C10180268044B84
:102C200009335B5C082199400A4302607047000049
:102C3000D0590008F8B50D4601210C032F1B0023C5
:102C4000564EA54249D007DC012D39D0102D3BD07E
:102C5000FF3D012D3CD13CE00F2424033C1B6FD0F1
:102C60000F252D04AC4233D1016A01252D05A9435E
:102C70000162016A446D4A4F3C4017683F023C4381
:102C80006F00B943178A3F053943A94395882D053D
:102C90002943B04208D0434DA84205D0424DA84236
:102CA00002D0424DA84207D145680126B604B5437B
:102CB0009669B602354345604465D268C26568E0EE
:102CC000114600F033FD02E0114600F077FD0146A9
:102CD00061E0114600F0BEFDF9E7016A012424031A
:102CE000A1430162016A4568C46903273F02BC43EE
:102CF0002B4F3C4017683F023C4301277F03B943F9
:102D000017693F03394301273F03B94357683F031E
:102D10003943B04208D0234EB04205D0224EB042D3
:102D200002D0224EB04205D10126B603B5439669C2
:102D3000B60135434560C461D268026429E0FFE70B
:102D4000016A01252D04A9430162016A446D184FEF
:102D50003C4017683C436F00B943178A3F0439432E
:102D60009788A9433F043943B04208D00D4EB04282
:102D700005D00D4EB04202D00C4EB04205D146688F
:102D8000AE4395692D022E4346604465D268846D3A
:102D90008265016219460846F8BD0000002C01401A
:102DA000FF8FFFFE00400140004401400048014009
:102DB0008FFFFEFF426870239A430A4342607047C8
:102DC00008B506490A690092421C00D0401C0A69F5
:102DD000D20300D5401E0028F9D108BD00E000E074
:102DE00070B51748C16801221143C160154C2078A5
:102DF000012803D01448FDF749FE70BD134D022190
:102E0000695E0020FEF736F9042002F01FF9012860
:102E1000F3D15220FFF780FBFDF78CFC00266E807B
:102E200031460520FEF726F96420FFF7C9FF00218F
:102E30000846FEF71FF926706420FFF7C1FF70BD3A
:102E40000010004007000020100000203004002087
:102E5000F0B587B018216846FDF787F90420FFF721
:102E600095FC2020FFF792FC0120FFF78FFC022049
:102E7000FFF78CFC0820FFF789FC0127114D7F0329
:102E8000AF622801A86280100024012600906946E4
:102E9000049601942846FFF723FC019602966946A2
:102EA0002846009704960394FFF71AFC2801009027
:102EB000019602966946049603942846FFF710FC93
:102EC00007B0F0BD0004005030B587B0142168464B
:102ED000FDF74BF90025294C05952748A560206092
:102EE0007F20E0606561A561FF20E5612061012030
:102EF0008007656220622046FEF7DAFB002801D0D9
:102F0000FEF7E4F80521684601704570857001956B
:102F100003950122694619480495FEF7CDFC002867
:102F200001D0FEF7D3F802216846017506214175EC
:102F3000012181752221C175012205A90F48FEF7E3
:102F40006DFC002801D0FEF7C1F8012100224902E2
:102F50000A48FEF7D7FA002801D0FEF7B7F8206834
:102F60008169012292021143816120688169120105
:102F70001143816107B030BD00280040640000208B
:102F800010B511480F490160FF2105314160002152
:102F90000722816012020161C26001224161520276
:102FA0008261016230224162C26181620722C26293
:102FB000016308214163FEF7F9FC002801D0FEF708
:102FC00085F810BD0038004090000020F0B593B0A7
:102FD00014210EA8FDF7C9F820216846FDF7C5F8B1
:102FE0000020FFF7EBFB182108A8FDF7BEF801262B
:102FF000F6033046FFF768FB0221132002F07EF84B
:10300000132002F06FF824486946088700242348FB
:10301000234D10900F940EA911942846FFF758FDE8
:10302000286880218843286001212846FFF7CAFDCF
:10303000602000900194029403946A460121049454
:103040002846FFF7F7FD01212846FFF783FD296A8F
:10305000012001432962296A01278843002801D001
:10306000FEF734F8286838432860686C3043686499
:103070000120FFF797FB1020089002200990042000
:103080000D9005200A940B940C9408A90007FFF7F3
:1030900027FB13B0F0BD00007F020000571B0000AB
:1030A0000020004070B5A0B014210CA8FDF75DF819
:1030B000202111A8FDF759F830216846FDF755F891
:1030C0000020FFF77BFB182119A8FDF74EF801201F
:1030D0000004FFF7F9FA0121142002F00FF8142080
:1030E00002F000F82E496846018600242D482E4D36
:1030F0000E900D940F940CA910942846FFF7E8FC4D
:1031000028688026B043286010212846FFF75AFD22
:10311000602016941294139411901494159417949B
:1031200011AA102118942846FFF784FD1021284683
:10313000FFF710FD00212846FFF73CFEA868B043CA
:10314000A86000940194684602940473C4816814D2
:103150000490059469460B942846FFF753FB296AAF
:103160001020014329622968012001432960696C0C
:10317000C60331436964E9680143E9600220FFF74F
:1031800011FB02201A90199605201E901B941C9486
:103190001D9419A90548FFF7A3FA20B070BD0000DF
:1031A0007F020000CF0700000040014000040050F3
:1031B00070B58CB0142106A8FCF7D7FF182168461B
:1031C000FCF7D3FF0020FFF7F9FA01204004FFF7D6
:1031D0007BFA0820FFF7E6FA02260024012505966F
:1031E00002940394019669461F4800950494FFF7E2
:1031F00077FA0121152001F081FF152001F072FFFF
:103200001A4869460883079409940A941848194C87
:10321000089006A92046FFF75BFC206880218843C0
:1032200020604A0201212046FFF732FB00220121E3
:103230002046FFF711FC0F22120501212046FFF75F
:1032400063FB002201212046FFF79AFB206A2843F6
:103250002062E0683043E060206828432060281F37
:1032600020610CB070BD0000000C00507F02000017
:10327000272300000044014030B58BB0142106A87C
:10328000FCF773FF18216846FCF76FFF0020FFF77B
:1032900095FA01208004FFF717FA0820FFF782FA59
:1032A0000225002400950294039401956946204864
:1032B00005950494FFF714FA0121162001F01EFF72
:1032C000162001F00FFF1B486946088307940994F4
:1032D0000A941948194C089006A92046FFF7F8FBF4
:1032E00020688021884320604A0201212046FFF7A0
:1032F000CFFA002201212046FFF7AEFB0F22120574
:1033000001212046FFF700FB002201212046FFF7A4
:1033100037FB216A012001432162E0682843E06015
:103320002068012108432060081F20610BB030BDD8
:10333000000C00507F0200002723000000480140DD
:10334000F0B593B014210EA8FCF70FFF202106A8BA
:10335000FCF70BFF0020FFF731FA18216846FCF755
:1033600004FF0220FFF7A4F94F48694608870024AC
:103370004E484F4D10900F940EA911942846FFF718
:10338000A7FB28688027B843286001212846FFF75B
:1033900019FC6020069007940894099406AA01215C
:1033A0000A942846FFF746FC01212846FFF7D2FB86
:1033B00010212846FFF706FC06AA10212846FFF731
:1033C00039FC10212846FFF7C5FBAE1531462846CB
:1033D000FFF7F8FB06AA31462846FFF72BFC3146DB
:1033E0002846FFF7B7FBA9142846FFF7EBFB06AA10
:1033F000A9142846FFF71EFCA9142846FFF7AAFBCC
:1034000000212846FFF7D6FCA868B843A860296ABF
:10341000012001432962296A102001432962286A98
:1034200030432862286AA9140843286228680126C4
:1034300030432860686CC900084368643046FFF771
:10344000B1F90220FFF7AEF9402005960090022561
:103450000520029403946946019504940007FFF740
:103460003FF90520009702940394694600070596EA
:1034700001950494FFF734F90E4F009602940394DB
:1034800069463846059601950494FFF729F9009599
:103490000294039469463846059601950494FFF713
:1034A0001FF913B0F0BD00007F020000E703000029
:1034B000000400400004005030B585B01421684677
:1034C000FCF753FE0020FFF779F91020FFF7F0F822
:1034D0000021112001F012FE112001F003FE0F481F
:1034E00069460880002001900D480E4C029020464D
:1034F000FFF7EEFA20688025A843206000212046CF
:10350000FFF758FCA068A843A060E16801200143D0
:10351000E16021680143216005B030BDFF18000063
:10352000E70300000010004030B585B01421684664
:10353000FCF71BFE0020FFF741F92020FFF7B8F849
:103540000021122001F0DAFD122001F0CBFD0E481F
:1035500069460880002001900C480D4C02902046DE
:10356000FFF7B6FA20688025A84320600021204696
:10357000FFF720FCA068A843A06020680121084351
:10358000206005B030BD00007F020000CF070000C2
:103590000014004010B51848164901604B2109027B
:1035A000416000218160C16001618161C16101628E
:1035B0000C22416242618162FEF7B6FD002801D013
:1035C000FDF784FD00210C48FEF714FC002801D013
:1035D000FDF77CFD00210848FEF7E8FB002801D03C
:1035E000FDF774FD0448FEF7C1FB002801D0FDF78C
:1035F0006DFD10BD003801405C01002010B5184879
:1036000016490160E1214902416000218160C160E9
:1036100001618161C16101620C224162426181628A
:10362000FEF782FD002801D0FDF750FD00210C4877
:10363000FEF7E0FB002801D0FDF748FD0021084817
:10364000FEF7B4FB002801D0FDF740FD0448FEF76B
:103650008DFB002801D0FDF739FD10BD004400406E
:10366000EC01002010B50D480B4901604B21C90148
:10367000416000218160C16001618161C1610162BD
:103680000C22416242618162FEF74EFD002801D0AA
:10369000FDF71CFD10BD0000004800407C0200202A
:1036A00010B50D480B490160E1214902416000213C
:1036B0008160C16001618161C16101620C2241626E
:1036C00042618162FEF730FD002801D0FDF7FEFC6B
:1036D00010BD0000004C00400C030020074A10B54C
:1036E00010462021803801F01BFF044A2021921C43
:1036F0001046423801F014FF10BD00002C040020D9
:10370000FEE7000010B508480169C907C90F0AD0D3
:103710000121C943016101F045FF02F001F9FEF703
:1037200099FFFEF74FFF10BD0040014030B5026A1F
:10373000520852000262026A436884691A4DA40862
:10374000A4002C400D682C430225AA430D692A438E
:1037500052084D6852002A43144DA84208D0144D17
:10376000A84205D0134DA84202D0134DA84214D14F
:103770000825AA434D69AD002A430425AA438D6854
:10378000AD002A43FF250135AB438D692B4301254D
:103790006D02AB43CD696D002B4343608461C96802
:1037A00041630262002030BD8FFFFEFF002C01400C
:1037B00000400140004401400048014070B5026AE9
:1037C0001025AA430262026A43688469032636020E
:1037D000B4431B4E34400E68360234432026B243B5
:1037E0000E6936013243AA434D682D012A43154D17
:1037F000A84208D0144DA84205D0144DA84202D0CA
:10380000134DA84215D18025AA434D69AD012A4325
:103810004025AA438D68AD012A430125AD02AB4383
:103820008D69AD002B430125ED02AB43CD69ED0061
:103830002B4343608461C96881630262002070BDCC
:10384000FF8FFFFE002C014000400140004401407A
:103850000048014070B5026AFF250135AA430262A3
:10386000026A4368C4691D4EA408A40034400E686F
:1038700034436E00B2430E6936023243AA434D68A8
:103880002D022A43164DA84208D0164DA84205D055
:10389000154DA84202D0154DA84217D10125ED02C1
:1038A000AA434D69AD022A430125AD02AA438D68A2
:1038B000AD022A4301252D03AB438D692D012B4316
:1038C00001256D03AB43CD696D012B434360C4619A
:1038D000C968C1630262002070BD00008FFFFEFF57
:1038E000002C0140004001400044014000480140DC
:1038F00070470000F8B54C4B0221595E4C4B494CC7
:103900007D251B882789494A6D0112265D1B965F1C
:103910003B0001F0DAFB0919061A2A3F515C667573
:1039200019004448C16801221143C1600A210820DE
:1039300000F006F9012807D17D20C000FFF740FA0A
:10394000FCF7F8FE02202081F8BD0020FDF792FB75
:103950000A2001F07BFB0128F6D1032033492081A6
:103960003348891C098A018059E0AE4202DDFDF727
:1039700081FBF8BD00210A20FDF77CFB2E48FFF7F4
:103980001FFA00210846FDF775FBC820FFF718FA5B
:103990000420D8E7AE42EADB00210820FDF76AFBED
:1039A0002648FFF70DFA00210846FDF763FBC82003
:1039B000FFF706FA0520C6E7AE42D8DC002108462C
:1039C000FDF758FBC820FFF7FBF90620BBE700F026
:1039D000EBF9FCF7AFFEFF20F530FFF7F1F9072018
:1039E000B1E71023D35EE12292009342BFDC0021B5
:1039F0000846FDF73FFBC820FFF7E2F90820A2E7E1
:103A00000020FDF737FB0A2001F020FB0128B0D190
:103A1000092020810748C16849084900C160FCF7B6
:103A200089FEF8BD80040020300400201C04002022
:103A30004000002000100040C4090000881300006E
:103A400001090A2200075143000F4018C0B2704715
:103A50000022014602E00A39C9B2521C0A29FAD2F0
:103A60001007000E08437047F8B5044600680025AB
:103A7000C168490618D4C16880221143C160FDF7AE
:103A800077FC27460646203708E0FDF771FC811BCE
:103A90007D20C000814201D903257D722068C06865
:103AA000400601D4032DF0D12846F8BDF8B5124CDC
:103AB0000026E16880229143E160A16905468906FC
:103AC0002035002907DBFDF757FF002811D0032020
:103AD000687206460DE0A1692027B943A161FDF790
:103AE0004BFF002802D0032068720646A0693843C5
:103AF000A0613046F8BD00000028004010B5024823
:103B0000FDF776FD10BD00006400002010B50948E7
:103B1000C16801221143C16007480178012904D01E
:103B20000648FCF7B3FF002010BD00210170012002
:103B300010BD000000100040070000201000002011
:103B400070B50D4C0646207800250A46002806D19F
:103B500065800120207000211046FDF78BFA6088F7
:103B6000B04206D3002125700846FDF783FA0120F4
:103B700070BD002070BD000038000020F8B506467A
:103B80000F460E48FEF714FD0D4C00252078002846
:103B900002D16580012020700A480221415E38462A
:103BA000FDF768FA6088B04206D300212570084608
:103BB000FDF760FA0120F8BD0020F8BDF4000020F8
:103BC0003800002030040020F8B50F460B4615469B
:103BD0000092032104460022C90200F01BF82026AF
:103BE000002812D13B46002280212046009500F09B
:103BF0007DF8002809D103213B46002249022046D6
:103C0000009500F007F8002803D0206E30432066AE
:103C10000320F8BDFFB585B00E4604460020694676
:103C20000E9D17460871FDF7A3FB411B0898451A26
:103C3000FDF79EFB0390206823210C3002902A4858
:103C400000684843000D684346E003204002864276
:103C500006D1002F04D102980178684601710079DD
:103C60000898401C39D0FDF783FB0399401AA842FD
:103C700005D2002D03D0009800282BD02BE020681F
:103C80004168E022914341606068C11FFD390CD159
:103C90000121A068C903884202D04911884204D199
:103CA000206801684022914301600120A16A40031D
:103CB000814207D121680A6882430A6021680A6844
:103CC00002430A60012040346077002020770320FF
:103CD00009B0F0BD0025401E00902068806830408B
:103CE000B842B2D10020F3E724000020FFB581B034
:103CF0001E4604460A9DFDF73BFB401B351AFDF7A7
:103D000037FB0746264800684001000D684339E04C
:103D1000701C38D0FDF72CFBC01BA84205D2002D2B
:103D200003D0009800282BD02BE020684168E022C7
:103D3000914341606068C11FFD390CD10121A06829
:103D4000C903884202D04911884204D12068016821
:103D50004022914301600120A16A4003814207D1C2
:103D600021680A6882430A6021680A6802430A607F
:103D700001204034607700202077032005B0F0BD9B
:103D80000025401E0090206881680298884305D075
:103D9000002103988142BBD10020EFE70121F8E721
:103DA000240000207047000010B5FDF791F93E494E
:103DB000002088623DA001F061F93DA001F05EF9AC
:103DC00040A001F05BF943A001F058F946A001F0D2
:103DD00055F949A001F052F94CA001F04FF94EA05D
:103DE00001F04CF951A001F049F954A001F046F955
:103DF00057A001F043F95AA001F040F95DA001F08D
:103E00003DF960A001F03AF963A001F037F965A02F
:103E100001F034F968A001F031F96AA001F02EF93F
:103E20006DA001F02BF970A001F028F973A001F04A
:103E300025F975A001F022F9784C7D21E07809017F
:103E40004118A378627876A001F018F97948837850
:103E50004278017878A001F011F9207801280CD07F
:103E600002280CD003280CD004280CD005280CD034
:103E700006280CD007280CD00EE074A00AE076A02B
:103E800008E078A006E07AA004E07CA002E07EA032
:103E900000E080A001F0F2F804A001F0EFF80A20A1
:103EA000FEF78EFF10BD0000003801400D0A000033
:103EB0004176616461204B656461767261200D0A10
:103EC000000000004C696E204A696E677869616E77
:103ED0002000000032303139313930363032303262
:103EE00033200D0A0000000058696F6E67204A7584
:103EF0006E6368656E672000323031393139303693
:103F00003032303238200D0A000000004C75204A53
:103F100069746F6E672000003230313931393036C4
:103F20003032303234200D0A000000004C69204A43
:103F3000696E676E696E67200000000032303139AB
:103F4000313930363032303232200D0A0000000074
:103F50004B75616E67205A68697975200000000012
:103F600032303139313930363031303031200D0A8C
:103F7000000000004A69616E6720426F7975652014
:103F800000000000323031393139303630323031D2
:103F900039200D0A000000004368656E205A6970E0
:103FA00065692000323031393139303530353030C3
:103FB00039200D0A000000004C69752053696875AE
:103FC0006920000032303139313930353035303008
:103FD00033200D0A000000004D61204D696E677AA4
:103FE00068756F20000000003230313931393035CA
:103FF0003036303032200D0A000000004475205960
:104000006966656920000000323031393139303558
:104010003035303031200D0A000000003C00002017
:10402000253032642F253032642F253032640D0A5A
:10403000000000006C040020253032643A25303244
:10404000643A253032640D0A000000004D6F6E6442
:1040500061790D0A00000000547565736461790D83
:104060000A0000005765646E65736461790D0A008B
:1040700054687572736461790D0A00004672696450
:1040800061790D0A000000005361747572646179F2
:104090000D0A000053756E6461790D0A000000007E
:1040A00070B50025164C002804D00A263230704323
:1040B000A08000E0A5801348A6884663002904D0AC
:1040C0000A2632317143E18000E0E580E1888163B6
:1040D000002A04D00A2132324A43228100E025819D
:1040E0002189C163002B04D00A203233434363810A
:1040F00000E06581034960894031086070BD0000BF
:10410000300400200004004010B5FDF737F910BD61
:1041100010B52E4802210268D208D2000A4302607C
:1041200001684907490F0229FAD12948016801228B
:1041300012041143016001688903C90FFBD02549AE
:104140000A688B151A430A6021494031CA6918234D
:104150009A43CA61CA6901231A43CA61CA699207AC
:10416000D20FFBD01C49C2681C4B1A401143C160DE
:1041700001680122120611430160C1681201114356
:10418000C16001688901C90FFBD081680F2212024A
:104190009143816082680221D208D2000A43826082
:1041A0003822816811401029FBD18168072212034F
:1041B000914381600A48FEF71FFB0320FDF7FAF8E0
:1041C000002801D072B6FEE710BD000000200240BA
:1041D0000010024000700040031000208C80FF1F80
:1041E0000090D0037047000010B505480169C90769
:1041F000C90F04D00121C9430161FFF7D5FD10BDEE
:104200000020004010B5FFF77DFA10BD10B500F09A
:10421000B1FE10BD10B500F0E3FE10BD10B50A48A8
:104220000169C907C90F0DD00121C94301610748C0
:10423000FEF78CF90648016906480068FCF7E2F9C8
:104240000549488010BD000000100040F400002027
:104250002C010020080000203004002010B5084880
:104260000169C907C90F0AD00121C943016100F0E2
:1042700069FE0448FCF7C2FB0348FCF77DFA10BD59
:104280000014004010000020FF000020F7B58F4A06
:104290008B4C8D4B0221515EE78810201222185E54
:1042A0009A5E884D8A4E3B0000F00FFF12140A20E0
:1042B0002D394652606C7A8797ADB9C8D5DFF614B0
:1042C000EA6801231A43EA60009A904203DD0298EB
:1042D000FCF7D0FEFEBD00210846FCF7CBFE7D4872
:1042E0003060C820FEF76CFD02200AE00020FCF7D9
:1042F000C1FE142000F0AAFE0128EBD1FCF71AFA47
:104300000320E080FEBD01988242E0DB00210846E8
:10431000FCF7B0FEC820FEF753FD0420F1E70621AC
:104320000820FFF70DFC0128ECD1C820FEF748FD5E
:10433000002030600520E4E70020FCF79BFE1420FD
:1043400000F084FE0128DDD1FCF7F4F90620D8E75F
:10435000009A9042BBDC00210846FCF78BFE5D48CA
:104360003060C820FEF72CFD0720CAE70020FCF7CC
:1043700081FE142000F06AFE0128C3D1FCF7DAF9AF
:104380000820BEE701988242A1DB00210846FCF725
:1043900071FE00203060C820FEF712FD0920B0E752
:1043A00006210E20FFF7CCFB0128ABD1C820FEF779
:1043B00007FD002030600A20A3E70020FCF75AFE2A
:1043C000142000F043FE01289CD1FCF7B3F9E86803
:1043D00001210843E8600B2093E7009A783A904265
:1043E000B8DC00210620FCF745FE3B48FEF7E8FC60
:1043F0003848002130600846FCF73CFEC820FEF734
:10440000DFFC0C207DE70020FCF734FE142000F0D8
:104410001DFE012888D1FCF78DF90D2071E7B42825
:1044200098DC00210846FCF725FE5220FEF774F8C0
:10443000E86840084000E8600E2062E70521084671
:10444000FFF77EFB012898D1C820FEF7B9FCFCF7E6
:1044500071F90F2055E7214882218163052000F082
:10446000F5FD012889D110204BE71C4837218163D5
:104470000421C9430520FFF763FB012895D1FF20E4
:10448000F530FEF79DFC13483060E86801210843D1
:10449000E860112035E7FFE70020FCF7EBFD142072
:1044A00000F0D4FD01288FD1FCF744F9E8684008FA
:1044B0004000E8601220E08001202081FEBD000065
:1044C00080040020001000401C0400203004002064
:1044D000080000200000B4428A02000000400140B1
:1044E00070B505460C460948FEF762F808480221F7
:1044F00004600848415E0020FCF7BCFD284600F03F
:10450000A5FD012800D0002070BD0000F4000020AF
:104510000800002030040020F8B50446416E403405
:10452000002915D000688168806809014D0F0A4E86
:10453000400F3746315C083F385CC000FBF7D4FDC4
:104540006085785D715DC000FBF7CEFD2085F8BD0C
:1045500001206085FAE70000145A000810B5018DAB
:10456000C90707D001684A6801235B049A43C36AFC
:104570001A434A60018D890707D501684A680123FB
:104580001B049A43036B1A434A60018D490707D500
:1045900001684A6801239B049A43436B1A434A60AB
:1045A000018D090707D501684A680123DB039A4397
:1045B000836B1A434A60018DC90607D5026891686A
:1045C00001231B039943C36B19439160018D890635
:1045D00007D501688A6801235B039A43036C1A4379
:1045E0008A60018D490612D503685A6801210905C0
:1045F000446C8A4322435A60426C8A4207D1026863
:10460000516803235B059943836C19435160018D05
:10461000090607D501684A680123DB04C06C9A4388
:1046200002434A6010BD0000FEB5054600268035F5
:104630000446EE60FCF79CFE019020680068124F73
:10464000000709D501210097002249052046019B5A
:1046500000F0F2FB00280DD12068006840070BD560
:1046600001210097002289052046019B00F0E4FB10
:10467000002801D00320FEBD20206860A860E66607
:104680002E700020FEBD0000FFFFFF0110B5806A04
:10469000002201464031CA83CA82FDF7D0FB10BD1B
:1046A00010B5EFF31081012282F3108802681368BD
:1046B000FF242134A343136081F31088EFF31081AA
:1046C000012282F31088026893680D4C23409360A6
:1046D00081F31088C16E01290BD1EFF31081012203
:1046E00082F31088026813681024A343136081F3D7
:1046F0001088202288210A500021C166016710BD60
:10470000FEFFFFEF70B501464031034680330C8C4D
:104710009D680268222D04D09069082108439061A9
:1047200070BD526A856D22402A80826D921C82651E
:10473000CA8B521ECA83CA8B002AF1D1EFF31082B2
:10474000012484F3108804682568FF262136B543C8
:10475000256082F31088EFF31082012484F310881F
:104760000468A5686D086D00A56082F3108820229A
:104770009A6000220267C36E012B02D0FDF7F2FDA2
:1047800070BDC266EFF31082012383F310880468C2
:10479000256810239D43256082F310880268D46940
:1047A000E443E40600D41362898BFDF7FDFA70BD83
:1047B000F0B505460446403589B0288C0290216842
:1047C000CE69086806908868049020468030009082
:1047D0008068222805D08A69082002438A6109B0CE
:1047E000F0BD2F8D68E02068406A029AA16D1040EC
:1047F0000880A06D801CA065E88B401EE8832068BF
:10480000C669710731D0F10709D00699C90506D5E7
:10481000012101620098C06808430099C860B00790
:104820000BD50498C00708D02168022008620098C0
:10483000C068042108430099C86070070BD504982C
:10484000C00708D02168042008620098C0680221CF
:1048500008430099C8600098C068002805D0204629
:10486000FDF7EDFA00990020C860E88B002823D1FD
:10487000EFF31080012181F3108821680A68FF237B
:1048800001339A430A6080F31088EFF3108001210E
:1048900081F3108821688A68264B1A408A6080F369
:1048A000108800982021816000202067E16E012996
:1048B00028D02046FDF756FD002F01D0B00692D437
:1048C000E88B00288BD0298D814288D9EFF31080A6
:1048D000012181F3108821688A6801231B079A430C
:1048E0008A6080F310881448EFF31081206701205C
:1048F00080F310882068026820231A43026081F345
:1049000010886CE7E066EFF31080012181F31088D6
:104910002268136810218B43136080F3108820688D
:10492000C269D243D20600D40162A98B2046FDF7AA
:104930003BFAC1E7FEFFFFEF0547000870B50146EF
:104940004031034680330C8C9D680268222D04D0D0
:10495000906908210843906170BD526A2240846DBD
:104960002270826D521C8265CA8B521ECA83CA8B0A
:10497000002AF1D1EFF31082012484F31088046837
:104980002568FF262136B543256082F31088EFF3B2
:104990001082012484F310880468A5686D086D00F6
:1049A000A56082F3108820229A6000220267C36EFD
:1049B000012B02D0FDF7D6FC70BDC266EFF310826A
:1049C000012383F310880468256810239D43256024
:1049D00082F310880268D469E443E40600D41362C9
:1049E000898BFDF7E1F970BDF0B505460446403509
:1049F00089B0288C01902168CE6908680690886883
:104A000004902046803002908068222805D0886972
:104A100008221043886109B0F0BD2F8D68E020683E
:104A2000406A01990840A16D0870A06D401CA06506
:104A3000E88B401EE8832068C669710731D0F10712
:104A400009D00699C90506D5012101620298C068FE
:104A500008430299C860B0070BD50498C00708D076
:104A60002168022008620298C06804210843029964
:104A7000C86070070BD50498C00708D021680420CF
:104A800008620298C068022108430299C86002982F
:104A9000C068002805D02046FDF7D1F90299002012
:104AA000C860E88B002823D1EFF31080012181F347
:104AB000108821680A68FF2301339A430A6080F353
:104AC0001088EFF31080012181F3108821688A6833
:104AD000264B1A408A6080F3108802992020886053
:104AE00000202067E16E012928D02046FDF73AFC1E
:104AF000002F01D0B00692D4E88B00288BD0298DEE
:104B0000814288D9EFF31080012181F31088216858
:104B10008A6801231B079A438A6080F3108814482F
:104B20002067EFF31080012181F3108821680B6862
:104B3000202213430B6080F310886CE7E066EFF3EC
:104B40001080012181F310882268136810218B43A3
:104B5000136080F310882068C269D243D20600D463
:104B60000162A98B2046FDF71FF9C1E7FEFFFFEFA9
:104B70003D490008F8B5044680682169E2690843A8
:104B8000616900251143226808431168534B19409D
:104B90000143116021684868032212039043E268D0
:104BA00010434860A169206A2268084391684C4B11
:104BB0001940014391602068C16A626A09090901CC
:104BC0001143C162474A2068474990420AD1486967
:104BD0008007800F20D0012814D0022810D003288D
:104BE0001CD111E0414A904210D148690C21084083
:104BF00012D0042806D0082802D00C280ED103E0D9
:104C000002210CE004210AE0082108E0384988422A
:104C100002D03849884201D1002100E01021012250
:104C2000E369D2033448354E354F934227D10029EA
:104C300006D002290BD0042905D008293DD11CE05B
:104C4000FCF706FC01E0FCF717FC00283CD0616A89
:104C50004900715AFBF748FA616840004A08801819
:104C6000FBF742FA01461039B94226D82449491CBB
:104C700001400007400F084324E01046E7E7002901
:104C800006D002290BD0042905D0082915D116E039
:104C9000FCF7DEFB01E0FCF7EFFB002814D0616AB3
:104CA0004900715AFBF720FA61684A088018FBF73F
:104CB0001BFA01461039B94203D9012504E0104618
:104CC000EDE780B22168C86020460121403041856F
:104CD00001850020206760672846F8BDF369FFCF93
:104CE000FFF4FF1100380140401002400044004032
:104CF00000480040004C00400024F400F459000833
:104D0000EFFF0000F0B58165014640318A83CA8318
:104D100000230367012584682D03FF26AC4204D1DC
:104D20000469002C13D13F4C0AE07F27002C09D0E6
:104D300001263607B4420CD10469002C05D03F246B
:104D40000C8407E00469002C01D00F8402E00E847B
:104D500000E00B8404468034E3602226A660EFF373
:104D60001086B446012686F310880668B768B646F2
:104D7000012637437646B760664686F310880127DA
:104D8000466E7F07BE4229D1098D914226D881689F
:104D9000A94202D1016900291ED02349016723706D
:104DA000016900290CD0EFF31081012282F31088F1
:104DB00002681368FF2401342343136081F31088D1
:104DC000EFF31081012282F31088006882680123CA
:104DD0001B071A43826021E01449DFE78168A9427A
:104DE00002D1016900290FD01149016723700169BF
:104DF0000029EFF3108109D0012282F310880068A6
:104E00000268FF23213307E00A49EEE7012282F31B
:104E100010880068026820231A43026081F310881A
:104E20000020F0BDFF010000E9490008B14700087B
:104E30003D49000805470008FFB581B00546174603
:104E4000044680350A9E54E0701C52D0FCF790FA5C
:104E50000499401AB0422FD8002E2DD02068016846
:104E6000490746D5C069C043000542D401202168E6
:104E7000C0020862EFF31080012181F310882168DD
:104E80000B68FF22A13293430B6080F31088EFF38D
:104E90001080012181F3108821688A68520852002D
:104EA0008A6080F3108820206860A860E860002095
:104EB0002870032005B0F0BDEFF31080012181F3CD
:104EC000108821680A68FF23A1339A430A6080F39F
:104ED0001088EFF31080012181F3108821688A681F
:104EE000520852008A6080F3108820206860A86011
:104EF000DDE72068C1690298884304D00020B842E9
:104F0000A2D00020D6E70120F9E7000010B5024842
:104F1000FCF796FF10BD00005C01002010B50248B0
:104F2000FCF78EFF10BD0000EC01002010B5034817
:104F3000FCF786FF0248FCF783FF10BD7C020020CF
:104F40000C03002010B509480488094B5A88510009
:104F500009180C82008940310882521C90B2588096
:104F6000202801D10020588010BD00009C030020A3
:104F700028000020F8B5174C20698007C00F18D012
:104F8000154E00273178F81E0225002912D001297C
:104F90000FD1616B114A11802061E068A843E06085
:104FA000002201212046FDF721FDE0682843E06052
:104FB0003770F8BD67622061E068A843E0600222B4
:104FC00001212046FDF712FDE0682843E060012042
:104FD0003070F8BD00440140280000209C030020F0
:104FE000F8B5174C20698007C00F18D0154E002760
:104FF0007178F81E0225002912D001290FD1616BAA
:10500000114A11812061E068A843E060002201217B
:105010002046FDF7EBFCE0682843E0607770F8BDC0
:1050200067622061E068A843E06002220121204617
:10503000FDF7DCFCE0682843E06001207070F8BDFB
:1050400000480140280000209C03002010B50A49B8
:1050500000220B78002B02D14A8001230B704B8871
:10506000834206D30A7000210846FCF703F80120AA
:1050700010BD002010BD0000380000200FB410B596
:1050800003A9044B044A029800F08CF810BC08BC39
:1050900004B0184789550008600000202021020C48
:1050A00001D010211046020A01D010460839020929
:1050B00001D01046091F820801D01046891E4208FF
:1050C00001D0881E7047081A704730B47446641EB9
:1050D0002578641CAB4200D21D46635D5B00E3187B
:1050E00030BC1847002805DBC106C90E01208840E6
:1050F000014908607047000000E100E08307FF22DB
:10510000DB0E9A408907090E9940002808DB8308C6
:1051100009489B001B1818689043084318607047A3
:105120000007000F0838830804489B001B18D86943
:1051300090430843D861704700E400E000ED00E0D0
:105140008307FF22DB0E9A408907090E9940002849
:1051500008DB830809489B001B1818689043084324
:10516000186070470007000F0838830804489B0048
:105170001B18D86990430843D861704700E400E0E9
:1051800000ED00E002E008C8121F08C1002AFAD1B1
:1051900070477047002001E001C1121F002AFBD1B7
:1051A00070470000FFB58FB00546002606E02528B1
:1051B0000AD0129A119990476D1C761C2878002805
:1051C000F5D1304613B0F0BD002402940121B54A58
:1051D000009400E004436D1C2B780846203B984067
:1051E0001042F7D128782A280ED0022228780146CA
:1051F0003039092916D802990A2359433039401801
:1052000014436D1C0290F1E7109802C802911090AF
:10521000002904DA0120400304434842029002209E
:1052200004436D1C28782E2817D104200443687885
:105230006D1C2A280CD110986D1C02C8009110908A
:105240000BE000990A225143303940186D1C009040
:105250002878014630390929F3D928786C2810D0EC
:1052600006DC4C281AD068280ED06A2817D104E032
:10527000742813D07A2812D110E00120400504438D
:105280000CE00121090501E0032109050C436978BF
:10529000814203D10120000524186D1C6D1C287863
:1052A000692874D006DC00288BD0632827D06428B6
:1052B00006D16CE06E2808D073282CD0752878D0E1
:1052C000129A11999047761C5FE06002400F022805
:1052D00009D003280DD00428109801680DD00E6065
:1052E000001D109051E01098F21701680E604A609E
:1052F000F6E7109801680E80F2E70E70F0E710985C
:105300006A4601781173001D10900020507303A8A5
:105310000190012005E0109802C801911090002032
:10532000C04361070CD5002700E07F1C00998F4225
:105330000FDA8742F9DB0199C95D0029F5D108E050
:10534000002700E07F1C8742FCDB0199C95D002932
:10535000F8D102982146C01B0290129B119A00F0CE
:10536000B3F88019C61907E0019801990078491C23
:105370000191129A119990477F1EF5D22146129BF6
:10538000119A029800F090F886196D1C16E70A2011
:105390000190109901C910916102490F032900D1B0
:1053A00000B2042900D140B2002803DA40422D2186
:1053B00003E00DE0210504D52B216A46117301217C
:1053C00003E0E10711D02021F7E70CAF0C9114E0C6
:1053D0000A200190109901C910916102490F032917
:1053E00000D180B2042900D1C0B20021EDE70199BB
:1053F000FAF77AFE30317F1E39700028F7D104A801
:10540000C01B20300190600704D5012000048443B4
:10541000009801E0012000900199884201DD401AC6
:1054200000E00020411800900C9809180298401ADA
:105430000290E00306D42146129B119A029800F0D4
:1054400043F8861900200D9008E003A9085C129A21
:10545000119990470D98401C761C0D900C9988422C
:10546000F3DBE0030CD52146129B119A029800F061
:105470002BF8861904E0129A302011999047761C77
:105480000099481E00900029F5DC05E03878129A52
:105490007F1C11999047761C0199481E01900029A4
:1054A000F4DC6BE709280100F8B5044600251E4628
:1054B0001746880404D405E039462020B0476D1C07
:1054C000641EF9D52846F8BDFFB50446002581B015
:1054D0001E46C80301D5302700E02027880404D5E4
:1054E00005E038460399B0476D1C641EF9D528467F
:1054F00005B0F0BD30B5094C650C0CE00023C35E6F
:10550000801C002B04DCA34201D12B4600E05B424F
:105510000B80891C521E002AF0D130BD0080FFFF95
:1055200070B50446154600200B4604E00022A25E3A
:105530005B1E1018A41C002BF8D1FAF7EBFD288095
:1055400070BD0000F8B50F4C0546A769FBF710FFCA
:10555000AD010646BD420BD9FBF70AFFB042FBD0B6
:105560007D21781B49024018A1698142FCD8F8BD11
:105570007D1BA069A842FAD9FBF7FAFEB042F8D029
:10558000F8BD000000E000E013B5044B01226946BD
:105590000348FCF753FF00981CBD0000FFFF00000C
:1055A0005C01002070B51F4C1F4DE078401CC0B25C
:1055B000E0701E281DD10026E67000F07DF800285E
:1055C0000ED0267002E041006E52401C0728FADB24
:1055D00015490E3101E00E54401C1A28FBDB06E091
:1055E00001202070A078002801D100F07DF92078FA
:1055F000A0702078002814D00B48203800F0BAF8AA
:1056000000280CD008482038407B002807D10649E4
:10561000203942008B5A401CAB520728F9DB2888FE
:10562000A08070BD44000020AA040020FBF7AEFE5D
:10563000FEF76EFDFDF70CFCFDF746FCFDF7A0FC48
:10564000FDF77EFEFDF7C2FCFDF72CFDFDF7B0FD7A
:10565000FDF712FEFDF79EFFFDF7D0FFFEF702F803
:10566000FEF71EF8FDF760FFFDF726FFFCF792FF3F
:10567000FBF716FA3220FDF7A3FB0B490520486320
:105680000A49372088635220FCF746FFFBF752F89F
:1056900000F02AF9064C0748FCF78AFFFEF71EF8CF
:1056A000207AFBF70BFAF6E70020004000400140AB
:1056B000D2040020F40000201CB50EA103C9019102
:1056C000009005226946302000F0C2F805226946A4
:1056D000102000F013F8002069460A5CA52A03D1C7
:1056E000401CC0B20528F8D3052801D001201CBDFC
:1056F00000201CBDA5A5A5A5A5000000F8B50F4676
:10570000154604460121002289030C48FBF72AFEB6
:10571000204600F0D9F80646002405E0FF2000F0FE
:10572000D3F83855641CE4B2AC42F7D3012291039C
:105730000248FBF717FE3046F8BD00000004005099
:1057400070B501250A4E0446AD03002229463046B5
:10575000FBF708FE204600F0B7F8FF2000F0B4F891
:105760000446012229463046FBF7FCFD204670BD69
:105770000004005070B5064600240720FFF7E0FF44
:1057800005460146272000F083F8680614D56020FE
:10579000FFF7D6FF0446212805D202463146612094
:1057A000FFF7ACFF00E00024FF21E22000F070F8DA
:1057B0002807410F01484170204670BDFC040020BD
:1057C00070B50124204D6403002221462846FBF7D2
:1057D000C9FD0321232000F05BF805221B492A2084
:1057E00000F036F80121212000F052F8012122209A
:1057F00000F04EF81A21242000F04AF8322125202A
:1058000000F046F80F21262000F042F80F2120205A
:1058100000F03EF8FF21E12000F03AF8FF21E220FD
:1058200000F036F801213C2000F032F806213D203E
:1058300000F02EF8012221462846FBF793FD822036
:10584000FFF780FE70BD00000004005054000020EF
:10585000F8B50F46154604460121002289030B487E
:10586000FBF780FD204600F02FF80646002404E0F8
:10587000385D00F029F8641CE4B2AC42F8D3012290
:1058800091030248FBF76EFD3046F8BD000400505E
:10589000F8B501250B4E0F460446AD0300222946FC
:1058A0003046FBF75FFD204600F00EF80446384610
:1058B00000F00AF8012229463046FBF753FD204646
:1058C000F8BD00000004005001B582B064200090D3
:1058D000012301AA02A90348FCF72CF968460079C4
:1058E0000EBD00009000002010B50B49002008807C
:1058F00048808880094CC8806078002804D10A203C
:10590000FBF770FC01206070FFF7D6FE0028FBD18A
:10591000FFF756FF10BD0000D20400204400002015
:105920002A4B10B519881846CA07D20F0E300270DC
:105930008A07D20F42704A07D20F82700A07D20F2D
:10594000C270CA06D20F02718A06D20F42714A068D
:10595000D20F82710A06D20FC2719A78D407E40F6F
:1059600004729407E40F44725407E40F847214071E
:10597000E40FC472D406E40F04739406E40F447376
:105980005406E40F12068473D20FC2734A05D20F75
:1059900002740A05D20F4274CA04D20F82748A04B8
:1059A000D20FC2744A04D20F09040275C90F41759F
:1059B000197B0A07D20F82754A07D20FC2758A0770
:1059C000D20FC9070276C90F417610BDAA04002084
:1059D000000000000404043C3C0000080000000833
:1059E000000800000800000008000000020406088B
:1059F0000A0C1014010002000400060008000A004E
:105A00000C00100020004000800000010101010393
:105A10000701000008040204080101010000000061
:105A20000000000000000000000000000100000075
:105A30000200000003000000040000000002040651
:105A4000080A0C1014000000685A0008000000202A
:105A50006400000084510008CC5A00086400002053
:105A60009C080000945100080000000000000000A5
:105A70000000000000000000000000000000000026
:105A80000100000004000000000000000024F400F9
:105A90000000000000000000000000000000000006
:105AA00000000000000000000000000001000100F4
:105AB00000000400000000000000000020222C0173
:0C5AC0000120222C010100000000000069
:04000005080000B936
:00000001FF
